{
  "_format": "hh-sol-artifact-1",
  "contractName": "Licenses",
  "sourceName": "contracts/licensing/Licenses.sol",
  "abi": [
    {
      "inputs": [],
      "stateMutability": "nonpayable",
      "type": "constructor"
    },
    {
      "inputs": [],
      "name": "AccessControlBadConfirmation",
      "type": "error"
    },
    {
      "inputs": [
        {
          "internalType": "address",
          "name": "account",
          "type": "address"
        },
        {
          "internalType": "bytes32",
          "name": "neededRole",
          "type": "bytes32"
        }
      ],
      "name": "AccessControlUnauthorizedAccount",
      "type": "error"
    },
    {
      "inputs": [
        {
          "internalType": "address",
          "name": "target",
          "type": "address"
        }
      ],
      "name": "AddressEmptyCode",
      "type": "error"
    },
    {
      "inputs": [
        {
          "internalType": "address",
          "name": "implementation",
          "type": "address"
        }
      ],
      "name": "ERC1967InvalidImplementation",
      "type": "error"
    },
    {
      "inputs": [],
      "name": "ERC1967NonPayable",
      "type": "error"
    },
    {
      "inputs": [
        {
          "internalType": "address",
          "name": "sender",
          "type": "address"
        },
        {
          "internalType": "uint256",
          "name": "tokenId",
          "type": "uint256"
        },
        {
          "internalType": "address",
          "name": "owner",
          "type": "address"
        }
      ],
      "name": "ERC721IncorrectOwner",
      "type": "error"
    },
    {
      "inputs": [
        {
          "internalType": "address",
          "name": "operator",
          "type": "address"
        },
        {
          "internalType": "uint256",
          "name": "tokenId",
          "type": "uint256"
        }
      ],
      "name": "ERC721InsufficientApproval",
      "type": "error"
    },
    {
      "inputs": [
        {
          "internalType": "address",
          "name": "approver",
          "type": "address"
        }
      ],
      "name": "ERC721InvalidApprover",
      "type": "error"
    },
    {
      "inputs": [
        {
          "internalType": "address",
          "name": "operator",
          "type": "address"
        }
      ],
      "name": "ERC721InvalidOperator",
      "type": "error"
    },
    {
      "inputs": [
        {
          "internalType": "address",
          "name": "owner",
          "type": "address"
        }
      ],
      "name": "ERC721InvalidOwner",
      "type": "error"
    },
    {
      "inputs": [
        {
          "internalType": "address",
          "name": "receiver",
          "type": "address"
        }
      ],
      "name": "ERC721InvalidReceiver",
      "type": "error"
    },
    {
      "inputs": [
        {
          "internalType": "address",
          "name": "sender",
          "type": "address"
        }
      ],
      "name": "ERC721InvalidSender",
      "type": "error"
    },
    {
      "inputs": [
        {
          "internalType": "uint256",
          "name": "tokenId",
          "type": "uint256"
        }
      ],
      "name": "ERC721NonexistentToken",
      "type": "error"
    },
    {
      "inputs": [],
      "name": "EnforcedPause",
      "type": "error"
    },
    {
      "inputs": [],
      "name": "ExpectedPause",
      "type": "error"
    },
    {
      "inputs": [],
      "name": "FailedInnerCall",
      "type": "error"
    },
    {
      "inputs": [],
      "name": "InvalidInitialization",
      "type": "error"
    },
    {
      "inputs": [],
      "name": "NotInitializing",
      "type": "error"
    },
    {
      "inputs": [],
      "name": "UUPSUnauthorizedCallContext",
      "type": "error"
    },
    {
      "inputs": [
        {
          "internalType": "bytes32",
          "name": "slot",
          "type": "bytes32"
        }
      ],
      "name": "UUPSUnsupportedProxiableUUID",
      "type": "error"
    },
    {
      "anonymous": false,
      "inputs": [
        {
          "indexed": true,
          "internalType": "address",
          "name": "owner",
          "type": "address"
        },
        {
          "indexed": true,
          "internalType": "address",
          "name": "approved",
          "type": "address"
        },
        {
          "indexed": true,
          "internalType": "uint256",
          "name": "tokenId",
          "type": "uint256"
        }
      ],
      "name": "Approval",
      "type": "event"
    },
    {
      "anonymous": false,
      "inputs": [
        {
          "indexed": true,
          "internalType": "address",
          "name": "owner",
          "type": "address"
        },
        {
          "indexed": true,
          "internalType": "address",
          "name": "operator",
          "type": "address"
        },
        {
          "indexed": false,
          "internalType": "bool",
          "name": "approved",
          "type": "bool"
        }
      ],
      "name": "ApprovalForAll",
      "type": "event"
    },
    {
      "anonymous": false,
      "inputs": [
        {
          "indexed": false,
          "internalType": "uint256",
          "name": "_fromTokenId",
          "type": "uint256"
        },
        {
          "indexed": false,
          "internalType": "uint256",
          "name": "_toTokenId",
          "type": "uint256"
        }
      ],
      "name": "BatchMetadataUpdate",
      "type": "event"
    },
    {
      "anonymous": false,
      "inputs": [
        {
          "indexed": false,
          "internalType": "uint64",
          "name": "version",
          "type": "uint64"
        }
      ],
      "name": "Initialized",
      "type": "event"
    },
    {
      "anonymous": false,
      "inputs": [
        {
          "indexed": false,
          "internalType": "uint256",
          "name": "_tokenId",
          "type": "uint256"
        }
      ],
      "name": "MetadataUpdate",
      "type": "event"
    },
    {
      "anonymous": false,
      "inputs": [
        {
          "indexed": false,
          "internalType": "address",
          "name": "account",
          "type": "address"
        }
      ],
      "name": "Paused",
      "type": "event"
    },
    {
      "anonymous": false,
      "inputs": [
        {
          "indexed": true,
          "internalType": "bytes32",
          "name": "role",
          "type": "bytes32"
        },
        {
          "indexed": true,
          "internalType": "bytes32",
          "name": "previousAdminRole",
          "type": "bytes32"
        },
        {
          "indexed": true,
          "internalType": "bytes32",
          "name": "newAdminRole",
          "type": "bytes32"
        }
      ],
      "name": "RoleAdminChanged",
      "type": "event"
    },
    {
      "anonymous": false,
      "inputs": [
        {
          "indexed": true,
          "internalType": "bytes32",
          "name": "role",
          "type": "bytes32"
        },
        {
          "indexed": true,
          "internalType": "address",
          "name": "account",
          "type": "address"
        },
        {
          "indexed": true,
          "internalType": "address",
          "name": "sender",
          "type": "address"
        }
      ],
      "name": "RoleGranted",
      "type": "event"
    },
    {
      "anonymous": false,
      "inputs": [
        {
          "indexed": true,
          "internalType": "bytes32",
          "name": "role",
          "type": "bytes32"
        },
        {
          "indexed": true,
          "internalType": "address",
          "name": "account",
          "type": "address"
        },
        {
          "indexed": true,
          "internalType": "address",
          "name": "sender",
          "type": "address"
        }
      ],
      "name": "RoleRevoked",
      "type": "event"
    },
    {
      "anonymous": false,
      "inputs": [
        {
          "indexed": true,
          "internalType": "address",
          "name": "from",
          "type": "address"
        },
        {
          "indexed": true,
          "internalType": "address",
          "name": "to",
          "type": "address"
        },
        {
          "indexed": true,
          "internalType": "uint256",
          "name": "tokenId",
          "type": "uint256"
        }
      ],
      "name": "Transfer",
      "type": "event"
    },
    {
      "anonymous": false,
      "inputs": [
        {
          "indexed": false,
          "internalType": "address",
          "name": "account",
          "type": "address"
        }
      ],
      "name": "Unpaused",
      "type": "event"
    },
    {
      "anonymous": false,
      "inputs": [
        {
          "indexed": true,
          "internalType": "address",
          "name": "implementation",
          "type": "address"
        }
      ],
      "name": "Upgraded",
      "type": "event"
    },
    {
      "inputs": [],
      "name": "DEFAULT_ADMIN_ROLE",
      "outputs": [
        {
          "internalType": "bytes32",
          "name": "",
          "type": "bytes32"
        }
      ],
      "stateMutability": "view",
      "type": "function"
    },
    {
      "inputs": [],
      "name": "UPGRADE_INTERFACE_VERSION",
      "outputs": [
        {
          "internalType": "string",
          "name": "",
          "type": "string"
        }
      ],
      "stateMutability": "view",
      "type": "function"
    },
    {
      "inputs": [
        {
          "internalType": "address",
          "name": "to",
          "type": "address"
        },
        {
          "internalType": "uint256",
          "name": "tokenId",
          "type": "uint256"
        }
      ],
      "name": "approve",
      "outputs": [],
      "stateMutability": "nonpayable",
      "type": "function"
    },
    {
      "inputs": [
        {
          "internalType": "address",
          "name": "owner",
          "type": "address"
        }
      ],
      "name": "balanceOf",
      "outputs": [
        {
          "internalType": "uint256",
          "name": "",
          "type": "uint256"
        }
      ],
      "stateMutability": "view",
      "type": "function"
    },
    {
      "inputs": [
        {
          "internalType": "uint256",
          "name": "tokenId",
          "type": "uint256"
        }
      ],
      "name": "burn",
      "outputs": [],
      "stateMutability": "nonpayable",
      "type": "function"
    },
    {
      "inputs": [
        {
          "internalType": "uint256",
          "name": "license",
          "type": "uint256"
        },
        {
          "internalType": "uint256[]",
          "name": "contributions",
          "type": "uint256[]"
        },
        {
          "internalType": "int256[]",
          "name": "variables",
          "type": "int256[]"
        }
      ],
      "name": "evalLicenceCosts",
      "outputs": [
        {
          "internalType": "uint256",
          "name": "costinETH",
          "type": "uint256"
        }
      ],
      "stateMutability": "view",
      "type": "function"
    },
    {
      "inputs": [
        {
          "internalType": "uint256",
          "name": "tokenId",
          "type": "uint256"
        }
      ],
      "name": "getApproved",
      "outputs": [
        {
          "internalType": "address",
          "name": "",
          "type": "address"
        }
      ],
      "stateMutability": "view",
      "type": "function"
    },
    {
      "inputs": [
        {
          "internalType": "uint256",
          "name": "tokenId",
          "type": "uint256"
        }
      ],
      "name": "getLicenseApplicationCompensation",
      "outputs": [
        {
          "internalType": "uint96",
          "name": "licenseCompensation",
          "type": "uint96"
        }
      ],
      "stateMutability": "view",
      "type": "function"
    },
    {
      "inputs": [],
      "name": "getLicenseCostDenominator",
      "outputs": [
        {
          "internalType": "uint96",
          "name": "denominator",
          "type": "uint96"
        }
      ],
      "stateMutability": "pure",
      "type": "function"
    },
    {
      "inputs": [
        {
          "internalType": "bytes32",
          "name": "role",
          "type": "bytes32"
        }
      ],
      "name": "getRoleAdmin",
      "outputs": [
        {
          "internalType": "bytes32",
          "name": "",
          "type": "bytes32"
        }
      ],
      "stateMutability": "view",
      "type": "function"
    },
    {
      "inputs": [
        {
          "internalType": "bytes32",
          "name": "role",
          "type": "bytes32"
        },
        {
          "internalType": "address",
          "name": "account",
          "type": "address"
        }
      ],
      "name": "grantRole",
      "outputs": [],
      "stateMutability": "nonpayable",
      "type": "function"
    },
    {
      "inputs": [
        {
          "internalType": "bytes32",
          "name": "role",
          "type": "bytes32"
        },
        {
          "internalType": "address",
          "name": "account",
          "type": "address"
        }
      ],
      "name": "hasRole",
      "outputs": [
        {
          "internalType": "bool",
          "name": "",
          "type": "bool"
        }
      ],
      "stateMutability": "view",
      "type": "function"
    },
    {
      "inputs": [
        {
          "internalType": "address",
          "name": "defaultAdmin",
          "type": "address"
        },
        {
          "internalType": "address",
          "name": "pauser",
          "type": "address"
        },
        {
          "internalType": "address",
          "name": "minter",
          "type": "address"
        },
        {
          "internalType": "address",
          "name": "upgrader",
          "type": "address"
        }
      ],
      "name": "initialize",
      "outputs": [],
      "stateMutability": "nonpayable",
      "type": "function"
    },
    {
      "inputs": [
        {
          "internalType": "address",
          "name": "owner",
          "type": "address"
        },
        {
          "internalType": "address",
          "name": "operator",
          "type": "address"
        }
      ],
      "name": "isApprovedForAll",
      "outputs": [
        {
          "internalType": "bool",
          "name": "",
          "type": "bool"
        }
      ],
      "stateMutability": "view",
      "type": "function"
    },
    {
      "inputs": [
        {
          "internalType": "address",
          "name": "to",
          "type": "address"
        },
        {
          "internalType": "bytes",
          "name": "licenseAgreementURI",
          "type": "bytes"
        },
        {
          "internalType": "address",
          "name": "licenseFeeDirectiveComputer",
          "type": "address"
        },
        {
          "internalType": "address",
          "name": "nominatedBeneficiary",
          "type": "address"
        },
        {
          "internalType": "uint96",
          "name": "licenseCompensation",
          "type": "uint96"
        },
        {
          "internalType": "bytes",
          "name": "licenseDirective",
          "type": "bytes"
        }
      ],
      "name": "mintLicense",
      "outputs": [],
      "stateMutability": "nonpayable",
      "type": "function"
    },
    {
      "inputs": [],
      "name": "name",
      "outputs": [
        {
          "internalType": "string",
          "name": "",
          "type": "string"
        }
      ],
      "stateMutability": "view",
      "type": "function"
    },
    {
      "inputs": [
        {
          "internalType": "uint256",
          "name": "tokenId",
          "type": "uint256"
        }
      ],
      "name": "ownerOf",
      "outputs": [
        {
          "internalType": "address",
          "name": "",
          "type": "address"
        }
      ],
      "stateMutability": "view",
      "type": "function"
    },
    {
      "inputs": [],
      "name": "pause",
      "outputs": [],
      "stateMutability": "nonpayable",
      "type": "function"
    },
    {
      "inputs": [],
      "name": "paused",
      "outputs": [
        {
          "internalType": "bool",
          "name": "",
          "type": "bool"
        }
      ],
      "stateMutability": "view",
      "type": "function"
    },
    {
      "inputs": [
        {
          "internalType": "address",
          "name": "to",
          "type": "address"
        },
        {
          "internalType": "uint256[]",
          "name": "contributions",
          "type": "uint256[]"
        },
        {
          "internalType": "int256[]",
          "name": "variables",
          "type": "int256[]"
        },
        {
          "internalType": "uint8",
          "name": "isoCountryLicensee",
          "type": "uint8"
        }
      ],
      "name": "procureLicense",
      "outputs": [
        {
          "internalType": "uint256",
          "name": "grantedLicense",
          "type": "uint256"
        }
      ],
      "stateMutability": "payable",
      "type": "function"
    },
    {
      "inputs": [
        {
          "internalType": "address",
          "name": "to",
          "type": "address"
        },
        {
          "internalType": "uint256",
          "name": "license",
          "type": "uint256"
        },
        {
          "internalType": "uint256[]",
          "name": "contributions",
          "type": "uint256[]"
        },
        {
          "internalType": "int256[]",
          "name": "variables",
          "type": "int256[]"
        },
        {
          "internalType": "uint8",
          "name": "isoCountryLicensee",
          "type": "uint8"
        }
      ],
      "name": "procureLicenseExtended",
      "outputs": [
        {
          "internalType": "uint256",
          "name": "grantedLicense",
          "type": "uint256"
        }
      ],
      "stateMutability": "payable",
      "type": "function"
    },
    {
      "inputs": [],
      "name": "proxiableUUID",
      "outputs": [
        {
          "internalType": "bytes32",
          "name": "",
          "type": "bytes32"
        }
      ],
      "stateMutability": "view",
      "type": "function"
    },
    {
      "inputs": [
        {
          "internalType": "bytes32",
          "name": "role",
          "type": "bytes32"
        },
        {
          "internalType": "address",
          "name": "callerConfirmation",
          "type": "address"
        }
      ],
      "name": "renounceRole",
      "outputs": [],
      "stateMutability": "nonpayable",
      "type": "function"
    },
    {
      "inputs": [
        {
          "internalType": "bytes32",
          "name": "role",
          "type": "bytes32"
        },
        {
          "internalType": "address",
          "name": "account",
          "type": "address"
        }
      ],
      "name": "revokeRole",
      "outputs": [],
      "stateMutability": "nonpayable",
      "type": "function"
    },
    {
      "inputs": [
        {
          "internalType": "address",
          "name": "from",
          "type": "address"
        },
        {
          "internalType": "address",
          "name": "to",
          "type": "address"
        },
        {
          "internalType": "uint256",
          "name": "tokenId",
          "type": "uint256"
        }
      ],
      "name": "safeTransferFrom",
      "outputs": [],
      "stateMutability": "nonpayable",
      "type": "function"
    },
    {
      "inputs": [
        {
          "internalType": "address",
          "name": "from",
          "type": "address"
        },
        {
          "internalType": "address",
          "name": "to",
          "type": "address"
        },
        {
          "internalType": "uint256",
          "name": "tokenId",
          "type": "uint256"
        },
        {
          "internalType": "bytes",
          "name": "data",
          "type": "bytes"
        }
      ],
      "name": "safeTransferFrom",
      "outputs": [],
      "stateMutability": "nonpayable",
      "type": "function"
    },
    {
      "inputs": [
        {
          "internalType": "address",
          "name": "operator",
          "type": "address"
        },
        {
          "internalType": "bool",
          "name": "approved",
          "type": "bool"
        }
      ],
      "name": "setApprovalForAll",
      "outputs": [],
      "stateMutability": "nonpayable",
      "type": "function"
    },
    {
      "inputs": [
        {
          "internalType": "uint256",
          "name": "tokenId",
          "type": "uint256"
        },
        {
          "internalType": "uint96",
          "name": "licenseCompensation",
          "type": "uint96"
        }
      ],
      "name": "setLicenseApplicationCompensation",
      "outputs": [],
      "stateMutability": "nonpayable",
      "type": "function"
    },
    {
      "inputs": [
        {
          "internalType": "address",
          "name": "to",
          "type": "address"
        },
        {
          "internalType": "bytes",
          "name": "licenseAgreementURI",
          "type": "bytes"
        },
        {
          "internalType": "address",
          "name": "nominatedBeneficiary",
          "type": "address"
        },
        {
          "internalType": "uint96",
          "name": "licenseCompensation",
          "type": "uint96"
        },
        {
          "internalType": "uint256",
          "name": "tokenId",
          "type": "uint256"
        }
      ],
      "name": "setupOCTLLicenses",
      "outputs": [],
      "stateMutability": "nonpayable",
      "type": "function"
    },
    {
      "inputs": [
        {
          "internalType": "bytes4",
          "name": "interfaceId",
          "type": "bytes4"
        }
      ],
      "name": "supportsInterface",
      "outputs": [
        {
          "internalType": "bool",
          "name": "",
          "type": "bool"
        }
      ],
      "stateMutability": "view",
      "type": "function"
    },
    {
      "inputs": [],
      "name": "symbol",
      "outputs": [
        {
          "internalType": "string",
          "name": "",
          "type": "string"
        }
      ],
      "stateMutability": "view",
      "type": "function"
    },
    {
      "inputs": [
        {
          "internalType": "uint256",
          "name": "tokenId",
          "type": "uint256"
        }
      ],
      "name": "tokenDetails",
      "outputs": [
        {
          "internalType": "bytes[]",
          "name": "issueParameters",
          "type": "bytes[]"
        },
        {
          "internalType": "bytes",
          "name": "licenseDirective",
          "type": "bytes"
        },
        {
          "internalType": "address",
          "name": "licenseFeeDirectiveComputer",
          "type": "address"
        },
        {
          "internalType": "bytes",
          "name": "licenseAgreementURI",
          "type": "bytes"
        },
        {
          "internalType": "address",
          "name": "nominatedBeneficiary",
          "type": "address"
        },
        {
          "internalType": "uint96",
          "name": "licenseCompensation",
          "type": "uint96"
        }
      ],
      "stateMutability": "view",
      "type": "function"
    },
    {
      "inputs": [
        {
          "internalType": "uint256",
          "name": "tokenId",
          "type": "uint256"
        }
      ],
      "name": "tokenURI",
      "outputs": [
        {
          "internalType": "string",
          "name": "",
          "type": "string"
        }
      ],
      "stateMutability": "view",
      "type": "function"
    },
    {
      "inputs": [
        {
          "internalType": "address",
          "name": "from",
          "type": "address"
        },
        {
          "internalType": "address",
          "name": "to",
          "type": "address"
        },
        {
          "internalType": "uint256",
          "name": "tokenId",
          "type": "uint256"
        }
      ],
      "name": "transferFrom",
      "outputs": [],
      "stateMutability": "nonpayable",
      "type": "function"
    },
    {
      "inputs": [],
      "name": "unpause",
      "outputs": [],
      "stateMutability": "nonpayable",
      "type": "function"
    },
    {
      "inputs": [
        {
          "internalType": "uint256",
          "name": "tokenId",
          "type": "uint256"
        },
        {
          "internalType": "bytes",
          "name": "newRetrivalURL",
          "type": "bytes"
        }
      ],
      "name": "updateLicenseAgreementURI",
      "outputs": [],
      "stateMutability": "nonpayable",
      "type": "function"
    },
    {
      "inputs": [
        {
          "internalType": "address",
          "name": "newImplementation",
          "type": "address"
        },
        {
          "internalType": "bytes",
          "name": "data",
          "type": "bytes"
        }
      ],
      "name": "upgradeToAndCall",
      "outputs": [],
      "stateMutability": "payable",
      "type": "function"
    },
    {
      "inputs": [
        {
          "internalType": "address",
          "name": "contributions",
          "type": "address"
        },
        {
          "internalType": "address",
          "name": "grantedLicenses",
          "type": "address"
        },
        {
          "internalType": "address",
          "name": "paymentSplitter",
          "type": "address"
        },
        {
          "internalType": "address",
          "name": "defaultLicenseFeeDirective",
          "type": "address"
        },
        {
          "internalType": "uint256",
          "name": "OCTLLICENCEID",
          "type": "uint256"
        }
      ],
      "name": "wire",
      "outputs": [],
      "stateMutability": "nonpayable",
      "type": "function"
    }
  ],
  "bytecode": "0x60a0604052306080523480156200001557600080fd5b506200002062000026565b620000da565b7ff0c57e16840df040f15088dc2f81fe391c3923bec73e23a9662efc9c229c6a00805468010000000000000000900460ff1615620000775760405163f92ee8a960e01b815260040160405180910390fd5b80546001600160401b0390811614620000d75780546001600160401b0319166001600160401b0390811782556040519081527fc7f505b2f371ae2175ee4913f4499e1f2633a7b5936321eed1cdaeb6115181d29060200160405180910390a15b50565b6080516145de62000104600039600081816119e401528181611a0d0152611be501526145de6000f3fe6080604052600436106102255760003560e01c80635f539f9f11610123578063a22cb465116100ab578063d547741f1161006f578063d547741f1461066e578063e985e9c51461068e578063eaa65be8146106ae578063f8c8765e146106ce578063fc314e31146106ee57600080fd5b8063a22cb465146105bd578063ad3cb1cc146105dd578063b88d4fde1461060e578063bc6a04151461062e578063c87b56dd1461064e57600080fd5b8063871c78c0116100f2578063871c78c01461054057806391d148541461056057806395d89b41146105805780639c5c6bc914610595578063a217fddf146105a857600080fd5b80635f539f9f146104ab5780636352211e146104eb57806370a082311461050b5780638456cb591461052b57600080fd5b806336568abe116101b157806351f3cc1d1161017557806351f3cc1d1461041e57806352d1902d1461043e578063537df2f9146104535780635718d26b146104665780635c975abb1461048657600080fd5b806336568abe146103965780633f4ba83a146103b657806342842e0e146103cb57806342966c68146103eb5780634f1ef2861461040b57600080fd5b80630bc7aefe116101f85780630bc7aefe146102db578063206bec9e1461030957806323b872dd14610336578063248a9ca3146103565780632f2ff15d1461037657600080fd5b806301ffc9a71461022a57806306fdde031461025f578063081812fc14610281578063095ea7b3146102b9575b600080fd5b34801561023657600080fd5b5061024a610245366004613481565b610720565b60405190151581526020015b60405180910390f35b34801561026b57600080fd5b50610274610731565b60405161025691906134ee565b34801561028d57600080fd5b506102a161029c366004613501565b6107d5565b6040516001600160a01b039091168152602001610256565b3480156102c557600080fd5b506102d96102d436600461352f565b6107ea565b005b3480156102e757600080fd5b506102fb6102f636600461359f565b6107f9565b604051908152602001610256565b34801561031557600080fd5b5061031e61081b565b6040516001600160601b039091168152602001610256565b34801561034257600080fd5b506102d9610351366004613618565b61082f565b34801561036257600080fd5b506102fb610371366004613501565b6108bf565b34801561038257600080fd5b506102d9610391366004613659565b6108e1565b3480156103a257600080fd5b506102d96103b1366004613659565b6108fd565b3480156103c257600080fd5b506102d9610935565b3480156103d757600080fd5b506102d96103e6366004613618565b61096a565b3480156103f757600080fd5b506102d9610406366004613501565b610985565b6102d961041936600461373e565b610991565b34801561042a57600080fd5b506102d961043936600461378d565b6109ac565b34801561044a57600080fd5b506102fb610a71565b6102fb61046136600461381e565b610a8e565b34801561047257600080fd5b506102d96104813660046138c4565b610aab565b34801561049257600080fd5b506000805160206145898339815191525460ff1661024a565b3480156104b757600080fd5b5061031e6104c6366004613501565b600090815260076020526040902060040154600160a01b90046001600160601b031690565b3480156104f757600080fd5b506102a1610506366004613501565b610b46565b34801561051757600080fd5b506102fb6105263660046138e9565b610b51565b34801561053757600080fd5b506102d9610bad565b34801561054c57600080fd5b506102d961055b366004613906565b610bdf565b34801561056c57600080fd5b5061024a61057b366004613659565b610c3e565b34801561058c57600080fd5b50610274610c76565b6102fb6105a336600461396a565b610cb5565b3480156105b457600080fd5b506102fb600081565b3480156105c957600080fd5b506102d96105d8366004613a14565b611007565b3480156105e957600080fd5b50610274604051806040016040528060058152602001640352e302e360dc1b81525081565b34801561061a57600080fd5b506102d9610629366004613a42565b611012565b34801561063a57600080fd5b506102d9610649366004613aad565b611029565b34801561065a57600080fd5b50610274610669366004613501565b611136565b34801561067a57600080fd5b506102d9610689366004613659565b611141565b34801561069a57600080fd5b5061024a6106a9366004613b5f565b61115d565b3480156106ba57600080fd5b506102d96106c9366004613b8d565b6111aa565b3480156106da57600080fd5b506102d96106e9366004613bf8565b61121e565b3480156106fa57600080fd5b5061070e610709366004613501565b611430565b60405161025696959493929190613c54565b600061072b8261167f565b92915050565b600080516020614529833981519152805460609190819061075190613d11565b80601f016020809104026020016040519081016040528092919081815260200182805461077d90613d11565b80156107ca5780601f1061079f576101008083540402835291602001916107ca565b820191906000526020600020905b8154815290600101906020018083116107ad57829003601f168201915b505050505091505090565b60006107e0826116a4565b5061072b826116dc565b6107f5828233611716565b5050565b60008060008061080c8989898989611723565b509a9950505050505050505050565b600061082a6127106064613d61565b905090565b6001600160a01b03821661085e57604051633250574960e11b8152600060048201526024015b60405180910390fd5b600061086b838333611837565b9050836001600160a01b0316816001600160a01b0316146108b9576040516364283d7b60e01b81526001600160a01b0380861660048301526024820184905282166044820152606401610855565b50505050565b6000908152600080516020614569833981519152602052604090206001015490565b6108ea826108bf565b6108f38161184e565b6108b98383611858565b6001600160a01b03811633146109265760405163334bd91960e11b815260040160405180910390fd5b61093082826118fd565b505050565b7f65d7a28e3265b37a6474929f336521b332c1681b933f6cb9f3376673440d862a61095f8161184e565b610967611979565b50565b61093083838360405180602001604052806000815250611012565b6107f560008233611837565b6109996119d9565b6109a282611a80565b6107f58282611aaa565b336109b684610b46565b6001600160a01b031614806109d857506109d86109d284610b46565b3361115d565b610a155760405162461bcd60e51b815260206004820152600e60248201526d1b9bdd08185d5d1a1bdc9a5e995960921b6044820152606401610855565b610a558383838080601f016020809104026020016040519081016040528093929190818152602001838380828437600092019190915250611b6792505050565b60008381526007602052604090206003016108b9828483613ddc565b6000610a7b611bda565b5060008051602061454983398151915290565b6000610aa087600a8888888888610cb5565b979650505050505050565b33610ab583610b46565b6001600160a01b03161480610ad15750610ad16109d283610b46565b610b0e5760405162461bcd60e51b815260206004820152600e60248201526d1b9bdd08185d5d1a1bdc9a5e995960921b6044820152606401610855565b60009182526007602052604090912060040180546001600160601b03909216600160a01b026001600160a01b03909216919091179055565b600061072b826116a4565b60006000805160206145298339815191526001600160a01b038316610b8c576040516322718ad960e21b815260006004820152602401610855565b6001600160a01b039092166000908152600390920160205250604090205490565b7f65d7a28e3265b37a6474929f336521b332c1681b933f6cb9f3376673440d862a610bd78161184e565b610967611c23565b6000610bea8161184e565b50600380546001600160a01b03199081166001600160a01b03978816179091556004805482169587169590951790945560058054851693861693909317909255600680549093169316929092179055600155565b6000918252600080516020614569833981519152602090815260408084206001600160a01b0393909316845291905290205460ff1690565b7f80bb2b638cc20bc4d0a60d66940f3ab4a00c1d7b313497ca82fb0b4ab007930180546060916000805160206145298339815191529161075190613d11565b60085460009060ff1615610cf85760405162461bcd60e51b815260206004820152600a6024820152697265656e7472616e636560b01b6044820152606401610855565b6008805460ff191660011790553460008080610d178b8b8b8b8b611723565b92509250925083821115610d625760405162461bcd60e51b81526020600482015260126024820152711a5b9cdd59999a58d95b9d08185b5bdd5b9d60721b6044820152606401610855565b610d6b82611c6c565b610d759083613e9b565b91506000610d838c84611cbb565b9050610d8f8186613e9b565b9450610d9b8184613e9b565b6005546040516312c7655560e31b81529194506000916001600160a01b039091169063963b2aa8908690610dd790899083908790600401613eae565b604080518083038185885af1158015610df4573d6000803e3d6000fd5b50505050506040513d601f19601f82011682018060405250810190610e199190613f1f565b9150610e2790508487613e9b565b6005546001546000908152600760205260409020600401549197506001600160a01b0390811691638cdc363691899116610ec4576001546040516331a9108f60e11b815260048101919091523090636352211e90602401602060405180830381865afa158015610e9b573d6000803e3d6000fd5b505050506040513d601f19601f82011682018060405250810190610ebf9190613f4d565b610ee3565b6001546000908152600760205260409020600401546001600160a01b03165b6040516001600160e01b031960e085901b1681526001600160a01b039091166004820152602481018a90526000604482015260640160206040518083038185885af1158015610f36573d6000803e3d6000fd5b50505050506040513d601f19601f82011682018060405250810190610f5b9190613f6a565b6008805460ff191690556004549096506001600160a01b031663371ea6b08f8f868e8e8e610f8d426301e13380613f83565b60006040518963ffffffff1660e01b8152600401610fb2989796959493929190613fcd565b6020604051808303816000875af1158015610fd1573d6000803e3d6000fd5b505050506040513d601f19601f82011682018060405250810190610ff59190613f6a565b9e9d5050505050505050505050505050565b6107f5338383611e49565b61101d84848461082f565b6108b984848484611efa565b7f9f2df0fed2c77648de5860a4cc508cd0818c85b8b8a1ab4ceeef8d981c8956a66110538161184e565b60008054908061106283614068565b919050555061107387600054612023565b61107f60005487611b67565b60008054815260076020526040902060030161109b8782614081565b506000805481526007602052604080822060020180546001600160a01b03199081166001600160a01b038a8116919091179092558354845282842060049081018054909216898416179091558354845291909220018054909116600160a01b6001600160601b0386160217905581511561112d5760008054815260076020526040902060010161112b8382614081565b505b50505050505050565b606061072b8261203d565b61114a826108bf565b6111538161184e565b6108b983836118fd565b6001600160a01b0391821660009081527f80bb2b638cc20bc4d0a60d66940f3ab4a00c1d7b313497ca82fb0b4ab00793056020908152604080832093909416825291909152205460ff1690565b60006111b58161184e565b6111bf8683612023565b6111c98286611b67565b60008281526007602052604090206003016111e48682614081565b505060009081526007602052604090206001600160601b03909116600160a01b026001600160a01b03909216919091176004909101555050565b7ff0c57e16840df040f15088dc2f81fe391c3923bec73e23a9662efc9c229c6a008054600160401b810460ff1615906001600160401b03166000811580156112635750825b90506000826001600160401b0316600114801561127f5750303b155b90508115801561128d575080155b156112ab5760405163f92ee8a960e01b815260040160405180910390fd5b845467ffffffffffffffff1916600117855583156112d557845460ff60401b1916600160401b1785555b611319604051806040016040528060088152602001674c6963656e73657360c01b815250604051806040016040528060028152602001614c4360f01b815250612172565b611321612184565b61132961218c565b611331612184565b611339612184565b611341612184565b61134c60008a611858565b506113777f65d7a28e3265b37a6474929f336521b332c1681b933f6cb9f3376673440d862a89611858565b506113a27f9f2df0fed2c77648de5860a4cc508cd0818c85b8b8a1ab4ceeef8d981c8956a688611858565b506113cd7f189ab7a9244df0848122154315af71fe140f3db0fe014031783b0946b8c9d2e387611858565b506000546000036113df576127106000555b831561142557845460ff60401b19168555604051600181527fc7f505b2f371ae2175ee4913f4499e1f2633a7b5936321eed1cdaeb6115181d29060200160405180910390a15b505050505050505050565b600081815260076020908152604080832060028101546004820154825484518187028101870190955280855260609687969095879587958695919460018601946001600160a01b0392831694600388019493841693600160a01b90046001600160601b03169290918891908a9084015b8282101561154c5783829060005260206000200180546114bf90613d11565b80601f01602080910402602001604051908101604052809291908181526020018280546114eb90613d11565b80156115385780601f1061150d57610100808354040283529160200191611538565b820191906000526020600020905b81548152906001019060200180831161151b57829003601f168201915b5050505050815260200190600101906114a0565b50505050955084805461155e90613d11565b80601f016020809104026020016040519081016040528092919081815260200182805461158a90613d11565b80156115d75780601f106115ac576101008083540402835291602001916115d7565b820191906000526020600020905b8154815290600101906020018083116115ba57829003601f168201915b505050505094508280546115ea90613d11565b80601f016020809104026020016040519081016040528092919081815260200182805461161690613d11565b80156116635780601f1061163857610100808354040283529160200191611663565b820191906000526020600020905b81548152906001019060200180831161164657829003601f168201915b5050505050925095509550955095509550955091939550919395565b60006001600160e01b03198216637965db0b60e01b148061072b575061072b8261219c565b6000806116b0836121c1565b90506001600160a01b03811661072b57604051637e27328960e01b815260048101849052602401610855565b60009081527f80bb2b638cc20bc4d0a60d66940f3ab4a00c1d7b313497ca82fb0b4ab007930460205260409020546001600160a01b031690565b61093083838360016121fb565b60606000606061176587878080602002602001604051908101604052809392919081815260200183836020028082843760009201919091525061231192505050565b905060008061177383612371565b60065460008d8152600760205260408082209051639c034a2d60e01b8152949650929450926001600160a01b0390911691639c034a2d916117c29186916001909101908d908d90600401614140565b602060405180830381865afa1580156117df573d6000803e3d6000fd5b505050506040513d601f19601f820116820180604052508101906118039190613f6a565b905082610bb861181b83670de0b6b3a76400006141ed565b611825919061421a565b95509550505050955095509592505050565b60006118448484846125aa565b90505b9392505050565b61096781336125bf565b60006000805160206145698339815191526118738484610c3e565b6118f3576000848152602082815260408083206001600160a01b03871684529091529020805460ff191660011790556118a93390565b6001600160a01b0316836001600160a01b0316857f2f8788117e7eff1d82e926ec794901d17c78024a50270940304540a733656f0d60405160405180910390a4600191505061072b565b600091505061072b565b60006000805160206145698339815191526119188484610c3e565b156118f3576000848152602082815260408083206001600160a01b0387168085529252808320805460ff1916905551339287917ff6391f5c32d9c69d2a47ea670b442974b53935d1edc7fd64eb21e047a839171b9190a4600191505061072b565b6119816125f8565b600080516020614589833981519152805460ff191681557f5db9ee0a495bf2e6ff9c91a7834c1ba4fdd244a5e8aa4e537bd38aeae4b073aa335b6040516001600160a01b03909116815260200160405180910390a150565b306001600160a01b037f0000000000000000000000000000000000000000000000000000000000000000161480611a6057507f00000000000000000000000000000000000000000000000000000000000000006001600160a01b0316611a54600080516020614549833981519152546001600160a01b031690565b6001600160a01b031614155b15611a7e5760405163703e46dd60e11b815260040160405180910390fd5b565b7f189ab7a9244df0848122154315af71fe140f3db0fe014031783b0946b8c9d2e36107f58161184e565b816001600160a01b03166352d1902d6040518163ffffffff1660e01b8152600401602060405180830381865afa925050508015611b04575060408051601f3d908101601f19168201909252611b0191810190613f6a565b60015b611b2c57604051634c9c8ce360e01b81526001600160a01b0383166004820152602401610855565b6000805160206145498339815191528114611b5d57604051632a87526960e21b815260048101829052602401610855565b6109308383612628565b60008281527f0542a41881ee128a365a727b282c86fa859579490b9bb45aab8503648c8e790060208190526040909120611ba18382614081565b506040518381527ff8e1a15aba9398e019f0b49df1a4fde98ee17ae345cb5f6b5e2c27f5033e8ce79060200160405180910390a1505050565b306001600160a01b037f00000000000000000000000000000000000000000000000000000000000000001614611a7e5760405163703e46dd60e11b815260040160405180910390fd5b611c2b61267e565b600080516020614589833981519152805460ff191660011781557f62e78cea01bee320cd4e420270b5ea74000d11b0c9f74754ebdbfc544b05a258336119bb565b600080611c7c6127106064613d61565b6001546000908152600760205260409020600401546001600160601b0391821691611cb1918691600160a01b909104166141ed565b611847919061421a565b600080611ccb6127106064613d61565b6000858152600760205260409020600401546001600160601b0391821691611cfd918691600160a01b909104166141ed565b611d07919061421a565b9050611d138184613e9b565b600085815260076020526040812060040154919450906001600160a01b0316611d9b576040516331a9108f60e11b8152600481018690523090636352211e90602401602060405180830381865afa158015611d72573d6000803e3d6000fd5b505050506040513d601f19601f82011682018060405250810190611d969190613f4d565b611db7565b6000858152600760205260409020600401546001600160a01b03165b90508115611e415760055460405163466e1b1b60e11b81526001600160a01b038381166004830152602482018590526000604483015290911690638cdc363690849060640160206040518083038185885af1158015611e1a573d6000803e3d6000fd5b50505050506040513d601f19601f82011682018060405250810190611e3f9190613f6a565b505b509392505050565b6000805160206145298339815191526001600160a01b038316611e8a57604051630b61174360e31b81526001600160a01b0384166004820152602401610855565b6001600160a01b038481166000818152600584016020908152604080832094881680845294825291829020805460ff191687151590811790915591519182527f17307eab39ab6107e8899845ad3d59bd9653f200f220920489ca2b5937696c31910160405180910390a350505050565b6001600160a01b0383163b156108b957604051630a85bd0160e11b81526001600160a01b0384169063150b7a0290611f3c90339088908790879060040161422e565b6020604051808303816000875af1925050508015611f77575060408051601f3d908101601f19168201909252611f749181019061426b565b60015b611fe0573d808015611fa5576040519150601f19603f3d011682016040523d82523d6000602084013e611faa565b606091505b508051600003611fd857604051633250574960e11b81526001600160a01b0385166004820152602401610855565b805181602001fd5b6001600160e01b03198116630a85bd0160e11b1461201c57604051633250574960e11b81526001600160a01b0385166004820152602401610855565b5050505050565b6107f58282604051806020016040528060008152506126af565b60607f0542a41881ee128a365a727b282c86fa859579490b9bb45aab8503648c8e7900612069836116a4565b506000838152602082905260408120805461208390613d11565b80601f01602080910402602001604051908101604052809291908181526020018280546120af90613d11565b80156120fc5780601f106120d1576101008083540402835291602001916120fc565b820191906000526020600020905b8154815290600101906020018083116120df57829003601f168201915b50505050509050600061211a60408051602081019091526000815290565b9050805160000361212d57509392505050565b815115612160578082604051602001612147929190614288565b6040516020818303038152906040529350505050919050565b612169856126c6565b95945050505050565b61217a61273a565b6107f58282612783565b611a7e61273a565b61219461273a565b611a7e6127b4565b60006001600160e01b03198216632483248360e11b148061072b575061072b826127d5565b60009081527f80bb2b638cc20bc4d0a60d66940f3ab4a00c1d7b313497ca82fb0b4ab007930260205260409020546001600160a01b031690565b600080516020614529833981519152818061221e57506001600160a01b03831615155b156122e057600061222e856116a4565b90506001600160a01b0384161580159061225a5750836001600160a01b0316816001600160a01b031614155b801561226d575061226b818561115d565b155b156122965760405163a9fbf51f60e01b81526001600160a01b0385166004820152602401610855565b82156122de5784866001600160a01b0316826001600160a01b03167f8c5be1e5ebec7d5bd14f71427d1e84f3dd0314c0f7b2291e5b200ac8c7c3b92560405160405180910390a45b505b600093845260040160205250506040902080546001600160a01b0319166001600160a01b0392909216919091179055565b606061231b61342f565b60005b835181101561236757600084828151811061233b5761233b6142b7565b6020026020010151905060006123518483612825565b905061235d8285612947565b505060010161231e565b5061184781612a15565b606060006123b560405180606001604052806000815260200161345e6040805160808101825260009181018281526060808301939093528152602081019190915290565b6000805b85518110156125965760008682815181106123d6576123d66142b7565b60209081029190910101516003546040516369c87acb60e01b81526004810183905291925060009182916001600160a01b0316906369c87acb906024016040805180830381865afa15801561242f573d6000803e3d6000fd5b505050506040513d601f19601f8201168201806040525081019061245391906142cd565b600354604051631bffeb4b60e01b815260048101879052929450909250600091829182916001600160a01b0390911690631bffeb4b90602401600060405180830381865afa1580156124a9573d6000803e3d6000fd5b505050506040513d6000823e601f3d908101601f191682016040526124d1919081019061439f565b92509250925060005b8351811015612583576000826001600160601b0316848381518110612501576125016142b7565b60200260200101516001600160601b03168861251d91906141ed565b612527919061421a565b9050600061256b8c604051806040016040528089878151811061254c5761254c6142b7565b60200260200101516001600160a01b0316815260200185815250612ad8565b9050612577828c613f83565b9a5050506001016124da565b5050600190950194506123b99350505050565b506125a082612c98565b9590945092505050565b60006125b461267e565b611844848484612d73565b6125c98282610c3e565b6107f55760405163e2517d3f60e01b81526001600160a01b038216600482015260248101839052604401610855565b6000805160206145898339815191525460ff16611a7e57604051638dfc202b60e01b815260040160405180910390fd5b61263182612e7d565b6040516001600160a01b038316907fbc7cd75a20ee27fd9adebab32041f755214dbc6bffa90cc0225b39da2e5c2d3b90600090a2805115612676576109308282612ee2565b6107f5612f4f565b6000805160206145898339815191525460ff1615611a7e5760405163d93c066560e01b815260040160405180910390fd5b6126b98383612f6e565b6109306000848484611efa565b60606126d1826116a4565b5060006126e960408051602081019091526000815290565b905060008151116127095760405180602001604052806000815250611847565b8061271384612fd3565b604051602001612724929190614288565b6040516020818303038152906040529392505050565b7ff0c57e16840df040f15088dc2f81fe391c3923bec73e23a9662efc9c229c6a0054600160401b900460ff16611a7e57604051631afcd79f60e31b815260040160405180910390fd5b61278b61273a565b600080516020614529833981519152806127a58482614081565b50600181016108b98382614081565b6127bc61273a565b600080516020614589833981519152805460ff19169055565b60006001600160e01b031982166380ac58cd60e01b148061280657506001600160e01b03198216635b5e139f60e01b145b8061072b57506301ffc9a760e01b6001600160e01b031983161461072b565b6000806000612838848660400151613065565b60408701819052909250905081611e415784516000036128ac57604080518082018252858152815160008082526020828101909452919283019161289f565b6040805180820190915260008152606060208201528152602001906001900390816128775790505b509052602086015261292f565b604080516001808252818301909252600091816020015b6040805180820190915260008152606060208201528152602001906001900390816128c3579050509050856020015181600081518110612905576129056142b7565b60200260200101819052506040518060400160405280868152602001828152508660200181905250505b84518561293b82614068565b90525050905092915050565b60035460405163afc62a3160e01b8152600481018490526000916001600160a01b03169063afc62a3190602401600060405180830381865afa158015612991573d6000803e3d6000fd5b505050506040513d6000823e601f3d908101601f191682016040526129b99190810190614473565b905080516000146109305760005b81518110156108b95760008282815181106129e4576129e46142b7565b6020026020010151905060006129fa8583612825565b905080612a0b57612a0b8286612947565b50506001016129c7565b80516060906001600160401b03811115612a3157612a31613689565b604051908082528060200260200182016040528015612a5a578160200160208202803683370190505b50602083015190915060005b8351811015612ad1578160000151838281518110612a8657612a866142b7565b60209081029190910101528351612a9f90600190613e9b565b8114612ad1578160200151600081518110612abc57612abc6142b7565b60209081029190910101519150600101612a66565b5050919050565b6000806000612aeb848660400151613133565b60408701819052909250905081612c16578451600003612b6f576040805180820182528581528151600080825260208281019094529192830191612b62565b60408051608081018252600091810182815260608083019390935281526020810191909152815260200190600190039081612b2a5790505b5090526020860152612c02565b604080516001808252818301909252600091816020015b60408051608081018252600091810182815260608083019390935281526020810191909152815260200190600190039081612b86579050509050856020015181600081518110612bd857612bd86142b7565b60200260200101819052506040518060400160405280868152602001828152508660200181905250505b845185612c0e82614068565b905250611e41565b602085015160005b8651811015612c8d5785518251516001600160a01b03918216911603612c61578160000151602001518660200151612c569190613f83565b825160200152612c8d565b8160200151600081518110612c7857612c786142b7565b60209081029190910101519150600101612c1e565b505050905092915050565b80516060906001600160401b03811115612cb457612cb4613689565b604051908082528060200260200182016040528015612cf957816020015b6040805180820190915260008082526020820152815260200190600190039081612cd25790505b50602083015190915060005b8351811015612ad1578160000151838281518110612d2557612d256142b7565b60200260200101819052508060018560000151612d429190613e9b565b14612ad1578160200151600081518110612d5e57612d5e6142b7565b60209081029190910101519150600101612d05565b600060008051602061452983398151915281612d8e856121c1565b90506001600160a01b03841615612daa57612daa818587613209565b6001600160a01b03811615612dea57612dc76000866000806121fb565b6001600160a01b0381166000908152600383016020526040902080546000190190555b6001600160a01b03861615612e1b576001600160a01b03861660009081526003830160205260409020805460010190555b600085815260028301602052604080822080546001600160a01b0319166001600160a01b038a811691821790925591518893918516917fddf252ad1be2c89b69c2b068fc378daa952ba7f163c4a11628f55a4df523b3ef91a495945050505050565b806001600160a01b03163b600003612eb357604051634c9c8ce360e01b81526001600160a01b0382166004820152602401610855565b60008051602061454983398151915280546001600160a01b0319166001600160a01b0392909216919091179055565b6060600080846001600160a01b031684604051612eff91906144f8565b600060405180830381855af49150503d8060008114612f3a576040519150601f19603f3d011682016040523d82523d6000602084013e612f3f565b606091505b509150915061216985838361326d565b3415611a7e5760405163b398979f60e01b815260040160405180910390fd5b6001600160a01b038216612f9857604051633250574960e11b815260006004820152602401610855565b6000612fa683836000611837565b90506001600160a01b03811615610930576040516339e3563760e11b815260006004820152602401610855565b60606000612fe0836132c9565b60010190506000816001600160401b03811115612fff57612fff613689565b6040519080825280601f01601f191660200182016040528015613029576020820181803683370190505b5090508181016020015b600019016f181899199a1a9b1b9c1cb0b131b232b360811b600a86061a8153600a850494508461303357509392505050565b60008060005b600a8110156131235760006101008683604051602001613095929190918252602082015260400190565b6040516020818303038152906040528051906020012060001c6130b89190614514565b905061010081106130fc5760405162461bcd60e51b815260206004820152600e60248201526d27bb32b9333637bb9032b93937b960911b6044820152606401610855565b6001811b858117861461311957600094508517925061312c915050565b505060010161306b565b50600183915091505b9250929050565b60008060005b600a81101561312357600061010086600001518360405160200161317b92919060609290921b6bffffffffffffffffffffffff19168252601482015260340190565b6040516020818303038152906040528051906020012060001c61319e9190614514565b905061010081106131e25760405162461bcd60e51b815260206004820152600e60248201526d27bb32b9333637bb9032b93937b960911b6044820152606401610855565b6001811b85811786146131ff57600094508517925061312c915050565b5050600101613139565b6132148383836133a1565b610930576001600160a01b03831661324257604051637e27328960e01b815260048101829052602401610855565b60405163177e802f60e01b81526001600160a01b038316600482015260248101829052604401610855565b6060826132825761327d82613406565b611847565b815115801561329957506001600160a01b0384163b155b156132c257604051639996b31560e01b81526001600160a01b0385166004820152602401610855565b5080611847565b60008072184f03e93ff9f4daa797ed6e38ed64bf6a1f0160401b83106133085772184f03e93ff9f4daa797ed6e38ed64bf6a1f0160401b830492506040015b6d04ee2d6d415b85acef81000000008310613334576d04ee2d6d415b85acef8100000000830492506020015b662386f26fc10000831061335257662386f26fc10000830492506010015b6305f5e100831061336a576305f5e100830492506008015b612710831061337e57612710830492506004015b60648310613390576064830492506002015b600a831061072b5760010192915050565b60006001600160a01b038316158015906118445750826001600160a01b0316846001600160a01b031614806133db57506133db848461115d565b806118445750826001600160a01b03166133f4836116dc565b6001600160a01b031614949350505050565b8051156134165780518082602001fd5b604051630a12f52160e11b815260040160405180910390fd5b60405180606001604052806000815260200161345e604051806040016040528060008152602001606081525090565b8152602001600081525090565b6001600160e01b03198116811461096757600080fd5b60006020828403121561349357600080fd5b81356118478161346b565b60005b838110156134b95781810151838201526020016134a1565b50506000910152565b600081518084526134da81602086016020860161349e565b601f01601f19169290920160200192915050565b60208152600061184760208301846134c2565b60006020828403121561351357600080fd5b5035919050565b6001600160a01b038116811461096757600080fd5b6000806040838503121561354257600080fd5b823561354d8161351a565b946020939093013593505050565b60008083601f84011261356d57600080fd5b5081356001600160401b0381111561358457600080fd5b6020830191508360208260051b850101111561312c57600080fd5b6000806000806000606086880312156135b757600080fd5b8535945060208601356001600160401b03808211156135d557600080fd5b6135e189838a0161355b565b909650945060408801359150808211156135fa57600080fd5b506136078882890161355b565b969995985093965092949392505050565b60008060006060848603121561362d57600080fd5b83356136388161351a565b925060208401356136488161351a565b929592945050506040919091013590565b6000806040838503121561366c57600080fd5b82359150602083013561367e8161351a565b809150509250929050565b634e487b7160e01b600052604160045260246000fd5b604051601f8201601f191681016001600160401b03811182821017156136c7576136c7613689565b604052919050565b600082601f8301126136e057600080fd5b81356001600160401b038111156136f9576136f9613689565b61370c601f8201601f191660200161369f565b81815284602083860101111561372157600080fd5b816020850160208301376000918101602001919091529392505050565b6000806040838503121561375157600080fd5b823561375c8161351a565b915060208301356001600160401b0381111561377757600080fd5b613783858286016136cf565b9150509250929050565b6000806000604084860312156137a257600080fd5b8335925060208401356001600160401b03808211156137c057600080fd5b818601915086601f8301126137d457600080fd5b8135818111156137e357600080fd5b8760208285010111156137f557600080fd5b6020830194508093505050509250925092565b803560ff8116811461381957600080fd5b919050565b6000806000806000806080878903121561383757600080fd5b86356138428161351a565b955060208701356001600160401b038082111561385e57600080fd5b61386a8a838b0161355b565b9097509550604089013591508082111561388357600080fd5b5061389089828a0161355b565b90945092506138a3905060608801613808565b90509295509295509295565b6001600160601b038116811461096757600080fd5b600080604083850312156138d757600080fd5b82359150602083013561367e816138af565b6000602082840312156138fb57600080fd5b81356118478161351a565b600080600080600060a0868803121561391e57600080fd5b85356139298161351a565b945060208601356139398161351a565b935060408601356139498161351a565b925060608601356139598161351a565b949793965091946080013592915050565b600080600080600080600060a0888a03121561398557600080fd5b87356139908161351a565b96506020880135955060408801356001600160401b03808211156139b357600080fd5b6139bf8b838c0161355b565b909750955060608a01359150808211156139d857600080fd5b506139e58a828b0161355b565b90945092506139f8905060808901613808565b905092959891949750929550565b801515811461096757600080fd5b60008060408385031215613a2757600080fd5b8235613a328161351a565b9150602083013561367e81613a06565b60008060008060808587031215613a5857600080fd5b8435613a638161351a565b93506020850135613a738161351a565b92506040850135915060608501356001600160401b03811115613a9557600080fd5b613aa1878288016136cf565b91505092959194509250565b60008060008060008060c08789031215613ac657600080fd5b8635613ad18161351a565b955060208701356001600160401b0380821115613aed57600080fd5b613af98a838b016136cf565b965060408901359150613b0b8261351a565b909450606088013590613b1d8261351a565b909350608088013590613b2f826138af565b90925060a08801359080821115613b4557600080fd5b50613b5289828a016136cf565b9150509295509295509295565b60008060408385031215613b7257600080fd5b8235613b7d8161351a565b9150602083013561367e8161351a565b600080600080600060a08688031215613ba557600080fd5b8535613bb08161351a565b945060208601356001600160401b03811115613bcb57600080fd5b613bd7888289016136cf565b9450506040860135613be88161351a565b92506060860135613959816138af565b60008060008060808587031215613c0e57600080fd5b8435613c198161351a565b93506020850135613c298161351a565b92506040850135613c398161351a565b91506060850135613c498161351a565b939692955090935050565b600060c0820160c0835280895180835260e08501915060e08160051b86010192506020808c0160005b83811015613cab5760df19888703018552613c998683516134c2565b95509382019390820190600101613c7d565b50505050508281036020840152613cc281896134c2565b6001600160a01b038816604085015290508281036060840152613ce581876134c2565b915050613cfd60808301856001600160a01b03169052565b6001600160601b03831660a0830152610aa0565b600181811c90821680613d2557607f821691505b602082108103613d4557634e487b7160e01b600052602260045260246000fd5b50919050565b634e487b7160e01b600052601160045260246000fd5b6001600160601b03818116838216028082169190828114613d8457613d84613d4b565b505092915050565b601f821115610930576000816000526020600020601f850160051c81016020861015613db55750805b601f850160051c820191505b81811015613dd457828155600101613dc1565b505050505050565b6001600160401b03831115613df357613df3613689565b613e0783613e018354613d11565b83613d8c565b6000601f841160018114613e3b5760008515613e235750838201355b600019600387901b1c1916600186901b17835561201c565b600083815260209020601f19861690835b82811015613e6c5786850135825560209485019460019092019101613e4c565b5086821015613e895760001960f88860031b161c19848701351681555b505060018560011b0183555050505050565b8181038181111561072b5761072b613d4b565b606080825284519082018190526000906020906080840190828801845b82811015613efb57815180516001600160a01b031685528501518585015260409093019290840190600101613ecb565b505050602084019590955250506001600160a01b0391909116604090910152919050565b60008060408385031215613f3257600080fd5b8251613f3d81613a06565b6020939093015192949293505050565b600060208284031215613f5f57600080fd5b81516118478161351a565b600060208284031215613f7c57600080fd5b5051919050565b8082018082111561072b5761072b613d4b565b8183526000602080850194508260005b85811015613fc257813587529582019590820190600101613fa6565b509495945050505050565b6001600160a01b0389168152602080820189905260e060408301819052885190830181905260009189810191610100850190845b8181101561401d57845183529383019391830191600101614001565b50508481036060860152614032818a8c613f96565b9350505050614046608083018660ff169052565b8360a083015261405b60c0830184600b0b9052565b9998505050505050505050565b60006001820161407a5761407a613d4b565b5060010190565b81516001600160401b0381111561409a5761409a613689565b6140ae816140a88454613d11565b84613d8c565b602080601f8311600181146140e357600084156140cb5750858301515b600019600386901b1c1916600185901b178555613dd4565b600085815260208120601f198616915b82811015614112578886015182559484019460019091019084016140f3565b50858210156141305787850151600019600388901b60f8161c191681555b5050505050600190811b01905550565b84815260006020606060208401526000865461415b81613d11565b806060870152608060018084166000811461417d5760018114614199576141c9565b60ff19851660808a0152608084151560051b8a010195506141c9565b8b600052602060002060005b858110156141c05781548b82018601529083019088016141a5565b8a016080019650505b505050505083810360408501526141e1818688613f96565b98975050505050505050565b808202811582820484141761072b5761072b613d4b565b634e487b7160e01b600052601260045260246000fd5b60008261422957614229614204565b500490565b6001600160a01b0385811682528416602082015260408101839052608060608201819052600090614261908301846134c2565b9695505050505050565b60006020828403121561427d57600080fd5b81516118478161346b565b6000835161429a81846020880161349e565b8351908301906142ae81836020880161349e565b01949350505050565b634e487b7160e01b600052603260045260246000fd5b600080604083850312156142e057600080fd5b82519150602083015161ffff8116811461367e57600080fd5b60006001600160401b0382111561431257614312613689565b5060051b60200190565b8051613819816138af565b600082601f83011261433857600080fd5b8151602061434d614348836142f9565b61369f565b8083825260208201915060208460051b87010193508684111561436f57600080fd5b602086015b84811015614394578051614387816138af565b8352918301918301614374565b509695505050505050565b6000806000606084860312156143b457600080fd5b83516001600160401b03808211156143cb57600080fd5b818601915086601f8301126143df57600080fd5b815160206143ef614348836142f9565b82815260059290921b8401810191818101908a84111561440e57600080fd5b948201945b838610156144355785516144268161351a565b82529482019490820190614413565b9189015191975090935050508082111561444e57600080fd5b5061445b86828701614327565b92505061446a6040850161431c565b90509250925092565b6000602080838503121561448657600080fd5b82516001600160401b0381111561449c57600080fd5b8301601f810185136144ad57600080fd5b80516144bb614348826142f9565b81815260059190911b820183019083810190878311156144da57600080fd5b928401925b82841015610aa0578351825292840192908401906144df565b6000825161450a81846020870161349e565b9190910192915050565b60008261452357614523614204565b50069056fe80bb2b638cc20bc4d0a60d66940f3ab4a00c1d7b313497ca82fb0b4ab0079300360894a13ba1a3210667c828492db98dca3e2076cc3735a920a3ca505d382bbc02dd7bc7dec4dceedda775e58dd541e08a116c6c53815c0bd028192f7b626800cd5ed15c6e187e77e9aee88184c21f4f2182ab5827cb3b7e07fbedcd63f03300a2646970667358221220f7c2cbf17243e6e9900585d898ae0c90268aab295388fb34eb0ba20016a5df1864736f6c63430008160033",
  "linkReferences": {},
  "deployedLinkReferences": {}
}