{
  "_format": "hh-sol-artifact-1",
  "contractName": "LicensableContributions",
  "sourceName": "contracts/contribution/LicensableContributions.sol",
  "abi": [
    {
      "inputs": [],
      "stateMutability": "nonpayable",
      "type": "constructor"
    },
    {
      "inputs": [],
      "name": "AccessControlBadConfirmation",
      "type": "error"
    },
    {
      "inputs": [
        {
          "internalType": "address",
          "name": "account",
          "type": "address"
        },
        {
          "internalType": "bytes32",
          "name": "neededRole",
          "type": "bytes32"
        }
      ],
      "name": "AccessControlUnauthorizedAccount",
      "type": "error"
    },
    {
      "inputs": [
        {
          "internalType": "address",
          "name": "target",
          "type": "address"
        }
      ],
      "name": "AddressEmptyCode",
      "type": "error"
    },
    {
      "inputs": [
        {
          "internalType": "address",
          "name": "implementation",
          "type": "address"
        }
      ],
      "name": "ERC1967InvalidImplementation",
      "type": "error"
    },
    {
      "inputs": [],
      "name": "ERC1967NonPayable",
      "type": "error"
    },
    {
      "inputs": [],
      "name": "EnforcedPause",
      "type": "error"
    },
    {
      "inputs": [],
      "name": "ExpectedPause",
      "type": "error"
    },
    {
      "inputs": [],
      "name": "FailedInnerCall",
      "type": "error"
    },
    {
      "inputs": [],
      "name": "InvalidInitialization",
      "type": "error"
    },
    {
      "inputs": [],
      "name": "NestableTooDeep",
      "type": "error"
    },
    {
      "inputs": [],
      "name": "NestableTransferToDescendant",
      "type": "error"
    },
    {
      "inputs": [],
      "name": "NotInitializing",
      "type": "error"
    },
    {
      "inputs": [],
      "name": "UUPSUnauthorizedCallContext",
      "type": "error"
    },
    {
      "inputs": [
        {
          "internalType": "bytes32",
          "name": "slot",
          "type": "bytes32"
        }
      ],
      "name": "UUPSUnsupportedProxiableUUID",
      "type": "error"
    },
    {
      "anonymous": false,
      "inputs": [
        {
          "indexed": true,
          "internalType": "address",
          "name": "account",
          "type": "address"
        },
        {
          "indexed": true,
          "internalType": "address",
          "name": "operator",
          "type": "address"
        },
        {
          "indexed": false,
          "internalType": "bool",
          "name": "approved",
          "type": "bool"
        }
      ],
      "name": "ApprovalForAll",
      "type": "event"
    },
    {
      "anonymous": false,
      "inputs": [
        {
          "indexed": false,
          "internalType": "uint64",
          "name": "version",
          "type": "uint64"
        }
      ],
      "name": "Initialized",
      "type": "event"
    },
    {
      "anonymous": false,
      "inputs": [
        {
          "indexed": false,
          "internalType": "address",
          "name": "account",
          "type": "address"
        }
      ],
      "name": "Paused",
      "type": "event"
    },
    {
      "anonymous": false,
      "inputs": [
        {
          "indexed": true,
          "internalType": "bytes32",
          "name": "role",
          "type": "bytes32"
        },
        {
          "indexed": true,
          "internalType": "bytes32",
          "name": "previousAdminRole",
          "type": "bytes32"
        },
        {
          "indexed": true,
          "internalType": "bytes32",
          "name": "newAdminRole",
          "type": "bytes32"
        }
      ],
      "name": "RoleAdminChanged",
      "type": "event"
    },
    {
      "anonymous": false,
      "inputs": [
        {
          "indexed": true,
          "internalType": "bytes32",
          "name": "role",
          "type": "bytes32"
        },
        {
          "indexed": true,
          "internalType": "address",
          "name": "account",
          "type": "address"
        },
        {
          "indexed": true,
          "internalType": "address",
          "name": "sender",
          "type": "address"
        }
      ],
      "name": "RoleGranted",
      "type": "event"
    },
    {
      "anonymous": false,
      "inputs": [
        {
          "indexed": true,
          "internalType": "bytes32",
          "name": "role",
          "type": "bytes32"
        },
        {
          "indexed": true,
          "internalType": "address",
          "name": "account",
          "type": "address"
        },
        {
          "indexed": true,
          "internalType": "address",
          "name": "sender",
          "type": "address"
        }
      ],
      "name": "RoleRevoked",
      "type": "event"
    },
    {
      "anonymous": false,
      "inputs": [
        {
          "indexed": true,
          "internalType": "address",
          "name": "operator",
          "type": "address"
        },
        {
          "indexed": true,
          "internalType": "address",
          "name": "from",
          "type": "address"
        },
        {
          "indexed": true,
          "internalType": "address",
          "name": "to",
          "type": "address"
        },
        {
          "indexed": false,
          "internalType": "uint256[]",
          "name": "ids",
          "type": "uint256[]"
        },
        {
          "indexed": false,
          "internalType": "uint256[]",
          "name": "values",
          "type": "uint256[]"
        }
      ],
      "name": "TransferBatch",
      "type": "event"
    },
    {
      "anonymous": false,
      "inputs": [
        {
          "indexed": true,
          "internalType": "address",
          "name": "operator",
          "type": "address"
        },
        {
          "indexed": true,
          "internalType": "address",
          "name": "from",
          "type": "address"
        },
        {
          "indexed": true,
          "internalType": "address",
          "name": "to",
          "type": "address"
        },
        {
          "indexed": false,
          "internalType": "uint256",
          "name": "id",
          "type": "uint256"
        },
        {
          "indexed": false,
          "internalType": "uint256",
          "name": "value",
          "type": "uint256"
        }
      ],
      "name": "TransferSingle",
      "type": "event"
    },
    {
      "anonymous": false,
      "inputs": [
        {
          "indexed": false,
          "internalType": "string",
          "name": "value",
          "type": "string"
        },
        {
          "indexed": true,
          "internalType": "uint256",
          "name": "id",
          "type": "uint256"
        }
      ],
      "name": "URI",
      "type": "event"
    },
    {
      "anonymous": false,
      "inputs": [
        {
          "indexed": false,
          "internalType": "address",
          "name": "account",
          "type": "address"
        }
      ],
      "name": "Unpaused",
      "type": "event"
    },
    {
      "anonymous": false,
      "inputs": [
        {
          "indexed": true,
          "internalType": "address",
          "name": "implementation",
          "type": "address"
        }
      ],
      "name": "Upgraded",
      "type": "event"
    },
    {
      "inputs": [],
      "name": "DEFAULT_ADMIN_ROLE",
      "outputs": [
        {
          "internalType": "bytes32",
          "name": "",
          "type": "bytes32"
        }
      ],
      "stateMutability": "view",
      "type": "function"
    },
    {
      "inputs": [],
      "name": "UPGRADE_INTERFACE_VERSION",
      "outputs": [
        {
          "internalType": "string",
          "name": "",
          "type": "string"
        }
      ],
      "stateMutability": "view",
      "type": "function"
    },
    {
      "inputs": [
        {
          "internalType": "address",
          "name": "from",
          "type": "address"
        },
        {
          "internalType": "address",
          "name": "to",
          "type": "address"
        },
        {
          "internalType": "uint256",
          "name": "firstTokenId",
          "type": "uint256"
        },
        {
          "internalType": "uint256",
          "name": "batchSize",
          "type": "uint256"
        }
      ],
      "name": "_beforeTokenTransfer",
      "outputs": [],
      "stateMutability": "nonpayable",
      "type": "function"
    },
    {
      "inputs": [],
      "name": "_maxStoryPointsExtensions",
      "outputs": [
        {
          "internalType": "uint256",
          "name": "",
          "type": "uint256"
        }
      ],
      "stateMutability": "view",
      "type": "function"
    },
    {
      "inputs": [],
      "name": "_maxStoryPointsInitial",
      "outputs": [
        {
          "internalType": "uint256",
          "name": "",
          "type": "uint256"
        }
      ],
      "stateMutability": "view",
      "type": "function"
    },
    {
      "inputs": [
        {
          "internalType": "uint256",
          "name": "tokenId",
          "type": "uint256"
        },
        {
          "internalType": "uint256",
          "name": "dependentContribution",
          "type": "uint256"
        }
      ],
      "name": "addDependentContribution",
      "outputs": [],
      "stateMutability": "nonpayable",
      "type": "function"
    },
    {
      "inputs": [
        {
          "internalType": "uint256",
          "name": "tokenid",
          "type": "uint256"
        },
        {
          "internalType": "uint256[]",
          "name": "licenseRefs",
          "type": "uint256[]"
        }
      ],
      "name": "addLicenses",
      "outputs": [],
      "stateMutability": "nonpayable",
      "type": "function"
    },
    {
      "inputs": [
        {
          "internalType": "address",
          "name": "account",
          "type": "address"
        },
        {
          "internalType": "uint256",
          "name": "id",
          "type": "uint256"
        }
      ],
      "name": "balanceOf",
      "outputs": [
        {
          "internalType": "uint256",
          "name": "",
          "type": "uint256"
        }
      ],
      "stateMutability": "view",
      "type": "function"
    },
    {
      "inputs": [
        {
          "internalType": "address[]",
          "name": "accounts",
          "type": "address[]"
        },
        {
          "internalType": "uint256[]",
          "name": "ids",
          "type": "uint256[]"
        }
      ],
      "name": "balanceOfBatch",
      "outputs": [
        {
          "internalType": "uint256[]",
          "name": "",
          "type": "uint256[]"
        }
      ],
      "stateMutability": "view",
      "type": "function"
    },
    {
      "inputs": [
        {
          "internalType": "uint256",
          "name": "parentId",
          "type": "uint256"
        }
      ],
      "name": "childrenOf",
      "outputs": [
        {
          "internalType": "uint256[]",
          "name": "",
          "type": "uint256[]"
        }
      ],
      "stateMutability": "view",
      "type": "function"
    },
    {
      "inputs": [],
      "name": "confirmationDepth",
      "outputs": [
        {
          "internalType": "uint256",
          "name": "",
          "type": "uint256"
        }
      ],
      "stateMutability": "view",
      "type": "function"
    },
    {
      "inputs": [
        {
          "internalType": "uint256",
          "name": "tokenId",
          "type": "uint256"
        }
      ],
      "name": "contributionDimensions",
      "outputs": [
        {
          "internalType": "uint256",
          "name": "storyPoints",
          "type": "uint256"
        },
        {
          "internalType": "uint16",
          "name": "confirmationFactor",
          "type": "uint16"
        }
      ],
      "stateMutability": "view",
      "type": "function"
    },
    {
      "inputs": [
        {
          "internalType": "uint256",
          "name": "tokenid",
          "type": "uint256"
        }
      ],
      "name": "creatorLockout",
      "outputs": [],
      "stateMutability": "nonpayable",
      "type": "function"
    },
    {
      "inputs": [
        {
          "internalType": "uint256",
          "name": "tokenId",
          "type": "uint256"
        }
      ],
      "name": "creatorOf",
      "outputs": [
        {
          "internalType": "address",
          "name": "creator",
          "type": "address"
        }
      ],
      "stateMutability": "view",
      "type": "function"
    },
    {
      "inputs": [
        {
          "internalType": "uint256",
          "name": "tokenId",
          "type": "uint256"
        }
      ],
      "name": "directOwnerOf",
      "outputs": [
        {
          "internalType": "address",
          "name": "directOwner",
          "type": "address"
        }
      ],
      "stateMutability": "view",
      "type": "function"
    },
    {
      "inputs": [
        {
          "internalType": "uint256",
          "name": "id",
          "type": "uint256"
        }
      ],
      "name": "exists",
      "outputs": [
        {
          "internalType": "bool",
          "name": "tokenExists",
          "type": "bool"
        }
      ],
      "stateMutability": "view",
      "type": "function"
    },
    {
      "inputs": [
        {
          "internalType": "uint256",
          "name": "tokenid",
          "type": "uint256"
        }
      ],
      "name": "getCreatorBenefitFactor",
      "outputs": [
        {
          "internalType": "address",
          "name": "beneficiary",
          "type": "address"
        },
        {
          "internalType": "uint96",
          "name": "factor",
          "type": "uint96"
        }
      ],
      "stateMutability": "view",
      "type": "function"
    },
    {
      "inputs": [
        {
          "internalType": "uint256",
          "name": "tokenid",
          "type": "uint256"
        }
      ],
      "name": "getDependentContributions",
      "outputs": [
        {
          "internalType": "uint256[]",
          "name": "parentIds",
          "type": "uint256[]"
        }
      ],
      "stateMutability": "view",
      "type": "function"
    },
    {
      "inputs": [
        {
          "internalType": "uint256",
          "name": "token",
          "type": "uint256"
        }
      ],
      "name": "getLicenseBeneficiaries",
      "outputs": [
        {
          "internalType": "address[]",
          "name": "beneficiaries",
          "type": "address[]"
        },
        {
          "internalType": "uint96[]",
          "name": "sharefactor",
          "type": "uint96[]"
        },
        {
          "internalType": "uint96",
          "name": "demoninator",
          "type": "uint96"
        }
      ],
      "stateMutability": "view",
      "type": "function"
    },
    {
      "inputs": [
        {
          "internalType": "uint256",
          "name": "tokenid",
          "type": "uint256"
        }
      ],
      "name": "getLicenses",
      "outputs": [
        {
          "internalType": "uint256[]",
          "name": "licenses",
          "type": "uint256[]"
        }
      ],
      "stateMutability": "view",
      "type": "function"
    },
    {
      "inputs": [
        {
          "internalType": "uint256",
          "name": "tokenId",
          "type": "uint256"
        }
      ],
      "name": "getRetrivalURLHistory",
      "outputs": [
        {
          "internalType": "bytes[]",
          "name": "urlHistory",
          "type": "bytes[]"
        }
      ],
      "stateMutability": "view",
      "type": "function"
    },
    {
      "inputs": [
        {
          "internalType": "bytes32",
          "name": "role",
          "type": "bytes32"
        }
      ],
      "name": "getRoleAdmin",
      "outputs": [
        {
          "internalType": "bytes32",
          "name": "",
          "type": "bytes32"
        }
      ],
      "stateMutability": "view",
      "type": "function"
    },
    {
      "inputs": [
        {
          "internalType": "bytes32",
          "name": "role",
          "type": "bytes32"
        },
        {
          "internalType": "address",
          "name": "account",
          "type": "address"
        }
      ],
      "name": "grantRole",
      "outputs": [],
      "stateMutability": "nonpayable",
      "type": "function"
    },
    {
      "inputs": [
        {
          "internalType": "bytes32",
          "name": "role",
          "type": "bytes32"
        },
        {
          "internalType": "address",
          "name": "account",
          "type": "address"
        }
      ],
      "name": "hasRole",
      "outputs": [
        {
          "internalType": "bool",
          "name": "",
          "type": "bool"
        }
      ],
      "stateMutability": "view",
      "type": "function"
    },
    {
      "inputs": [
        {
          "internalType": "uint256",
          "name": "tokenid",
          "type": "uint256"
        },
        {
          "internalType": "uint96",
          "name": "newfactor",
          "type": "uint96"
        }
      ],
      "name": "increaseCreatorRoyalty",
      "outputs": [],
      "stateMutability": "nonpayable",
      "type": "function"
    },
    {
      "inputs": [
        {
          "internalType": "address",
          "name": "defaultAdmin",
          "type": "address"
        },
        {
          "internalType": "address",
          "name": "pauser",
          "type": "address"
        },
        {
          "internalType": "address",
          "name": "minter",
          "type": "address"
        },
        {
          "internalType": "address",
          "name": "upgrader",
          "type": "address"
        }
      ],
      "name": "initialize",
      "outputs": [],
      "stateMutability": "nonpayable",
      "type": "function"
    },
    {
      "inputs": [
        {
          "internalType": "address",
          "name": "account",
          "type": "address"
        },
        {
          "internalType": "address",
          "name": "operator",
          "type": "address"
        }
      ],
      "name": "isApprovedForAll",
      "outputs": [
        {
          "internalType": "bool",
          "name": "",
          "type": "bool"
        }
      ],
      "stateMutability": "view",
      "type": "function"
    },
    {
      "inputs": [
        {
          "internalType": "bytes",
          "name": "contributionUri",
          "type": "bytes"
        },
        {
          "internalType": "bytes",
          "name": "retrivalURL",
          "type": "bytes"
        },
        {
          "internalType": "address[]",
          "name": "accounts",
          "type": "address[]"
        },
        {
          "internalType": "uint256[]",
          "name": "depedentContributions",
          "type": "uint256[]"
        },
        {
          "internalType": "uint256",
          "name": "storyPoints",
          "type": "uint256"
        },
        {
          "internalType": "uint256",
          "name": "nestParent",
          "type": "uint256"
        }
      ],
      "name": "mintExtended",
      "outputs": [],
      "stateMutability": "nonpayable",
      "type": "function"
    },
    {
      "inputs": [
        {
          "internalType": "bytes",
          "name": "contributionUri",
          "type": "bytes"
        },
        {
          "internalType": "bytes",
          "name": "retrivalURL",
          "type": "bytes"
        },
        {
          "internalType": "address",
          "name": "owner",
          "type": "address"
        },
        {
          "internalType": "address",
          "name": "creator",
          "type": "address"
        },
        {
          "internalType": "uint256[]",
          "name": "depedentContributions",
          "type": "uint256[]"
        },
        {
          "internalType": "uint256",
          "name": "storyPoints",
          "type": "uint256"
        },
        {
          "internalType": "uint256",
          "name": "parent",
          "type": "uint256"
        }
      ],
      "name": "mintNested",
      "outputs": [],
      "stateMutability": "nonpayable",
      "type": "function"
    },
    {
      "inputs": [
        {
          "internalType": "bytes",
          "name": "contributionUri",
          "type": "bytes"
        },
        {
          "internalType": "bytes",
          "name": "retrivalURL",
          "type": "bytes"
        },
        {
          "internalType": "address",
          "name": "owner",
          "type": "address"
        },
        {
          "internalType": "address",
          "name": "creator",
          "type": "address"
        },
        {
          "internalType": "uint256[]",
          "name": "depedentContributions",
          "type": "uint256[]"
        },
        {
          "internalType": "uint256",
          "name": "storyPoints",
          "type": "uint256"
        }
      ],
      "name": "mintSingle",
      "outputs": [],
      "stateMutability": "nonpayable",
      "type": "function"
    },
    {
      "inputs": [
        {
          "internalType": "uint256",
          "name": "tokenId",
          "type": "uint256"
        },
        {
          "internalType": "uint256",
          "name": "destinationId",
          "type": "uint256"
        }
      ],
      "name": "nest",
      "outputs": [],
      "stateMutability": "nonpayable",
      "type": "function"
    },
    {
      "inputs": [
        {
          "internalType": "uint256",
          "name": "tokenId",
          "type": "uint256"
        }
      ],
      "name": "ownerOf",
      "outputs": [
        {
          "internalType": "address",
          "name": "",
          "type": "address"
        }
      ],
      "stateMutability": "view",
      "type": "function"
    },
    {
      "inputs": [],
      "name": "paused",
      "outputs": [
        {
          "internalType": "bool",
          "name": "",
          "type": "bool"
        }
      ],
      "stateMutability": "view",
      "type": "function"
    },
    {
      "inputs": [],
      "name": "proxiableUUID",
      "outputs": [
        {
          "internalType": "bytes32",
          "name": "",
          "type": "bytes32"
        }
      ],
      "stateMutability": "view",
      "type": "function"
    },
    {
      "inputs": [
        {
          "internalType": "uint256",
          "name": "tokenid",
          "type": "uint256"
        },
        {
          "internalType": "uint96",
          "name": "newfactor",
          "type": "uint96"
        }
      ],
      "name": "reduceCreatorRoyalty",
      "outputs": [],
      "stateMutability": "nonpayable",
      "type": "function"
    },
    {
      "inputs": [
        {
          "internalType": "bytes32",
          "name": "role",
          "type": "bytes32"
        },
        {
          "internalType": "address",
          "name": "callerConfirmation",
          "type": "address"
        }
      ],
      "name": "renounceRole",
      "outputs": [],
      "stateMutability": "nonpayable",
      "type": "function"
    },
    {
      "inputs": [
        {
          "internalType": "bytes",
          "name": "contributionUri",
          "type": "bytes"
        }
      ],
      "name": "resolveTokenForUri",
      "outputs": [
        {
          "internalType": "uint256",
          "name": "tokenId",
          "type": "uint256"
        }
      ],
      "stateMutability": "view",
      "type": "function"
    },
    {
      "inputs": [
        {
          "internalType": "bytes32",
          "name": "role",
          "type": "bytes32"
        },
        {
          "internalType": "address",
          "name": "account",
          "type": "address"
        }
      ],
      "name": "revokeRole",
      "outputs": [],
      "stateMutability": "nonpayable",
      "type": "function"
    },
    {
      "inputs": [
        {
          "internalType": "uint256",
          "name": "tokenId",
          "type": "uint256"
        },
        {
          "internalType": "uint256",
          "name": "salePrice",
          "type": "uint256"
        }
      ],
      "name": "royaltyInfo",
      "outputs": [
        {
          "internalType": "address",
          "name": "",
          "type": "address"
        },
        {
          "internalType": "uint256",
          "name": "",
          "type": "uint256"
        }
      ],
      "stateMutability": "view",
      "type": "function"
    },
    {
      "inputs": [
        {
          "internalType": "address",
          "name": "from",
          "type": "address"
        },
        {
          "internalType": "address",
          "name": "to",
          "type": "address"
        },
        {
          "internalType": "uint256[]",
          "name": "ids",
          "type": "uint256[]"
        },
        {
          "internalType": "uint256[]",
          "name": "amounts",
          "type": "uint256[]"
        },
        {
          "internalType": "bytes",
          "name": "data",
          "type": "bytes"
        }
      ],
      "name": "safeBatchTransferFrom",
      "outputs": [],
      "stateMutability": "nonpayable",
      "type": "function"
    },
    {
      "inputs": [
        {
          "internalType": "address",
          "name": "from",
          "type": "address"
        },
        {
          "internalType": "address",
          "name": "to",
          "type": "address"
        },
        {
          "internalType": "uint256",
          "name": "id",
          "type": "uint256"
        },
        {
          "internalType": "uint256",
          "name": "amount",
          "type": "uint256"
        },
        {
          "internalType": "bytes",
          "name": "data",
          "type": "bytes"
        }
      ],
      "name": "safeTransferFrom",
      "outputs": [],
      "stateMutability": "nonpayable",
      "type": "function"
    },
    {
      "inputs": [
        {
          "internalType": "address",
          "name": "operator",
          "type": "address"
        },
        {
          "internalType": "bool",
          "name": "approved",
          "type": "bool"
        }
      ],
      "name": "setApprovalForAll",
      "outputs": [],
      "stateMutability": "nonpayable",
      "type": "function"
    },
    {
      "inputs": [
        {
          "internalType": "uint256",
          "name": "token",
          "type": "uint256"
        },
        {
          "internalType": "address",
          "name": "beneficiary",
          "type": "address"
        }
      ],
      "name": "setCreatorBeneficiary",
      "outputs": [],
      "stateMutability": "nonpayable",
      "type": "function"
    },
    {
      "inputs": [
        {
          "internalType": "uint256",
          "name": "token",
          "type": "uint256"
        },
        {
          "internalType": "address",
          "name": "beneficiary",
          "type": "address"
        }
      ],
      "name": "setOwnerBeneficiary",
      "outputs": [],
      "stateMutability": "nonpayable",
      "type": "function"
    },
    {
      "inputs": [
        {
          "internalType": "bytes4",
          "name": "interfaceId",
          "type": "bytes4"
        }
      ],
      "name": "supportsInterface",
      "outputs": [
        {
          "internalType": "bool",
          "name": "",
          "type": "bool"
        }
      ],
      "stateMutability": "view",
      "type": "function"
    },
    {
      "inputs": [
        {
          "internalType": "uint256",
          "name": "tokenId",
          "type": "uint256"
        }
      ],
      "name": "topTokenNode",
      "outputs": [
        {
          "internalType": "uint256",
          "name": "token",
          "type": "uint256"
        },
        {
          "internalType": "address",
          "name": "tokenContract",
          "type": "address"
        }
      ],
      "stateMutability": "view",
      "type": "function"
    },
    {
      "inputs": [
        {
          "internalType": "uint256",
          "name": "childid",
          "type": "uint256"
        }
      ],
      "name": "unNest",
      "outputs": [],
      "stateMutability": "nonpayable",
      "type": "function"
    },
    {
      "inputs": [
        {
          "internalType": "uint256",
          "name": "tokenId",
          "type": "uint256"
        },
        {
          "internalType": "bytes",
          "name": "newRetrivalURL",
          "type": "bytes"
        }
      ],
      "name": "updateRetrivalURL",
      "outputs": [],
      "stateMutability": "nonpayable",
      "type": "function"
    },
    {
      "inputs": [
        {
          "internalType": "address",
          "name": "newImplementation",
          "type": "address"
        },
        {
          "internalType": "bytes",
          "name": "data",
          "type": "bytes"
        }
      ],
      "name": "upgradeToAndCall",
      "outputs": [],
      "stateMutability": "payable",
      "type": "function"
    },
    {
      "inputs": [
        {
          "internalType": "uint256",
          "name": "tokenId",
          "type": "uint256"
        }
      ],
      "name": "uri",
      "outputs": [
        {
          "internalType": "string",
          "name": "",
          "type": "string"
        }
      ],
      "stateMutability": "view",
      "type": "function"
    },
    {
      "inputs": [
        {
          "internalType": "address",
          "name": "paymentReceiverProxyFactory",
          "type": "address"
        },
        {
          "internalType": "address",
          "name": "applicationLicensesContract",
          "type": "address"
        },
        {
          "internalType": "address",
          "name": "contributorReputation",
          "type": "address"
        },
        {
          "internalType": "address",
          "name": "contributionTradeRoyaltyReceiverCTR",
          "type": "address"
        },
        {
          "internalType": "address",
          "name": "contributionApprovalManager",
          "type": "address"
        }
      ],
      "name": "wire",
      "outputs": [],
      "stateMutability": "nonpayable",
      "type": "function"
    }
  ],
  "bytecode": "0x60a0604052306080523480156200001557600080fd5b506200002062000026565b620000da565b7ff0c57e16840df040f15088dc2f81fe391c3923bec73e23a9662efc9c229c6a00805468010000000000000000900460ff1615620000775760405163f92ee8a960e01b815260040160405180910390fd5b80546001600160401b0390811614620000d75780546001600160401b0319166001600160401b0390811782556040519081527fc7f505b2f371ae2175ee4913f4499e1f2633a7b5936321eed1cdaeb6115181d29060200160405180910390a15b50565b608051615eb26200010460003960008181612f3301528181612f5c01526130c10152615eb26000f3fe6080604052600436106102e35760003560e01c806369c87acb11610190578063b8bc6235116100dc578063d547741f11610095578063f07800831161006f578063f0780083146109b5578063f242432a146109fc578063f8c8765e14610a1c578063fb25fb7a14610a3c57600080fd5b8063d547741f14610955578063e300173214610975578063e985e9c51461099557600080fd5b8063b8bc62351461086b578063bec436d01461088b578063c015404d146108ab578063c663ad81146108cb578063c92d9ec9146108f8578063cc656f4d1461093557600080fd5b8063a217fddf11610149578063aa5d2d6711610123578063aa5d2d67146107e5578063aa985de0146107fa578063ad3cb1cc1461081a578063afc62a311461084b57600080fd5b8063a217fddf14610790578063a22cb465146107a5578063a4e6d800146107c557600080fd5b806369c87acb146106a45780636f19951c146106fb5780636fcbc15c1461071b578063772c5b711461073b57806377b5fbfd1461075b57806391d148541461077057600080fd5b806336568abe1161024f5780634f558e7911610208578063589a1743116101e2578063589a1743146105dc5780635c975abb1461062d5780636352211e146106645780636718f4971461068457600080fd5b80634f558e791461056c57806352d1902d146105a757806354b24205146105bc57600080fd5b806336568abe146104b75780633bd26ba4146104d757806343c22750146104f75780634d64cb81146105175780634e1273f41461052c5780634f1ef2861461055957600080fd5b8063248a9ca3116102a1578063248a9ca3146103e95780632a55205a146104095780632bd9a459146104375780632eb2c2d6146104575780632f2ff15d1461047757806332ca0af21461049757600080fd5b8062fdd58e146102e857806301ffc9a71461031b578063037aa80f1461034b5780630e89341c1461036d5780631764ee5d1461039a5780631bffeb4b146103ba575b600080fd5b3480156102f457600080fd5b506103086103033660046148d1565b610a75565b6040519081526020015b60405180910390f35b34801561032757600080fd5b5061033b610336366004614913565b610b37565b6040519015158152602001610312565b34801561035757600080fd5b5061036b610366366004614930565b610b92565b005b34801561037957600080fd5b5061038d610388366004614930565b610b9f565b6040516103129190614999565b3480156103a657600080fd5b5061036b6103b53660046149ac565b610c85565b3480156103c657600080fd5b506103da6103d5366004614930565b610d43565b604051610312939291906149dc565b3480156103f557600080fd5b50610308610404366004614930565b611234565b34801561041557600080fd5b50610429610424366004614a7f565b611256565b604051610312929190614aa1565b34801561044357600080fd5b5061036b610452366004614aba565b6112ea565b34801561046357600080fd5b5061036b610472366004614c4e565b611367565b34801561048357600080fd5b5061036b6104923660046149ac565b611436565b3480156104a357600080fd5b5061036b6104b2366004614d10565b611458565b3480156104c357600080fd5b5061036b6104d23660046149ac565b611571565b3480156104e357600080fd5b5061036b6104f2366004614dba565b6115a9565b34801561050357600080fd5b5061036b6105123660046149ac565b611669565b34801561052357600080fd5b50610308600581565b34801561053857600080fd5b5061054c610547366004614ef8565b611727565b6040516103129190614f97565b61036b610567366004614faa565b611848565b34801561057857600080fd5b5061033b610587366004614930565b6000908152600260205260409020600901546001600160a01b0316151590565b3480156105b357600080fd5b50610308611867565b3480156105c857600080fd5b5061036b6105d7366004614fef565b611885565b3480156105e857600080fd5b506106156105f7366004614930565b6000908152600260205260409020600a01546001600160a01b031690565b6040516001600160a01b039091168152602001610312565b34801561063957600080fd5b507fcd5ed15c6e187e77e9aee88184c21f4f2182ab5827cb3b7e07fbedcd63f033005460ff1661033b565b34801561067057600080fd5b5061061561067f366004614930565b611971565b34801561069057600080fd5b5061036b61069f36600461502b565b6119c7565b3480156106b057600080fd5b506106e36106bf366004614930565b60009081526002602052604090206011810154601090910154909161ffff90911690565b6040805192835261ffff909116602083015201610312565b34801561070757600080fd5b5061054c610716366004614930565b611a87565b34801561072757600080fd5b5061036b610736366004614930565b611aec565b34801561074757600080fd5b5061036b610756366004614a7f565b611b9d565b34801561076757600080fd5b50610308611c50565b34801561077c57600080fd5b5061033b61078b3660046149ac565b611c69565b34801561079c57600080fd5b50610308600081565b3480156107b157600080fd5b5061036b6107c036600461510d565b611ca1565b3480156107d157600080fd5b5061054c6107e0366004614930565b611d0e565b3480156107f157600080fd5b50610308611dc1565b34801561080657600080fd5b5061036b610815366004614a7f565b611dcc565b34801561082657600080fd5b5061038d604051806040016040528060058152602001640352e302e360dc1b81525081565b34801561085757600080fd5b5061054c610866366004614930565b611dd7565b34801561087757600080fd5b5061036b61088636600461513b565b611e3a565b34801561089757600080fd5b5061036b6108a63660046151ac565b611ec4565b3480156108b757600080fd5b5061036b6108c6366004614d10565b611f7d565b3480156108d757600080fd5b506108eb6108e6366004614930565b612066565b60405161031291906151f7565b34801561090457600080fd5b50610918610913366004614930565b612155565b604080519283526001600160a01b03909116602083015201610312565b34801561094157600080fd5b5061030861095036600461525b565b61219a565b34801561096157600080fd5b5061036b6109703660046149ac565b6121cf565b34801561098157600080fd5b5061036b61099036600461529c565b6121eb565b3480156109a157600080fd5b5061033b6109b036600461536c565b61229f565b3480156109c157600080fd5b506109d56109d0366004614930565b612322565b604080516001600160a01b0390931683526001600160601b03909116602083015201610312565b348015610a0857600080fd5b5061036b610a1736600461539a565b6123a6565b348015610a2857600080fd5b5061036b610a37366004615402565b612441565b348015610a4857600080fd5b50610615610a57366004614930565b6000908152600260205260409020600701546001600160a01b031690565b60006001600160a01b038316610abd5760405162461bcd60e51b81526020600482015260086024820152677a65726f6164647960c01b60448201526064015b60405180910390fd5b600154821115610afd5760405162461bcd60e51b815260206004820152600b60248201526a0d2c840deeccae440dac2f60ab1b6044820152606401610ab4565b6000828152600260205260409020600701546001600160a01b03848116911614610b28576000610b2b565b60015b60ff1690505b92915050565b60006001600160e01b03198216636cdb3d1360e11b1480610b6857506001600160e01b031982166303a24d0760e21b145b80610b8357506001600160e01b0319821663152a902d60e11b145b80610b315750610b31826125dc565b610b9c3382612611565b50565b60008181526002602052604081205460609103610bf65760405162461bcd60e51b81526020600482015260156024820152741d1bdad95b925908191bd95cdb89dd08195e1a5cdd605a1b6044820152606401610ab4565b6000828152600260209081526040918290206009810154600a820154601083015460118401549551610c5f96610c4b966001600160a01b03958616969490951694600d850194600e019361ffff16920161548b565b604051602081830303815290604052612a5c565b604051602001610c6f91906155e7565b6040516020818303038152906040529050919050565b6004546001600160a01b031663c6b17fd833846040518363ffffffff1660e01b8152600401610cb5929190614aa1565b602060405180830381865afa158015610cd2573d6000803e3d6000fd5b505050506040513d601f19601f82011682018060405250810190610cf6919061562c565b610d125760405162461bcd60e51b8152600401610ab490615649565b600091825260026020526040909120600b0180546001600160a01b0319166001600160a01b03909216919091179055565b600081815260026020526040812060040154606091829115610e355760405163c92d9ec960e01b815260048101859052600090309063c92d9ec9906024016040805180830381865afa158015610d9d573d6000803e3d6000fd5b505050506040513d601f19601f82011682018060405250810190610dc1919061566f565b50604051631bffeb4b60e01b8152600481018290529091503090631bffeb4b90602401600060405180830381865afa158015610e01573d6000803e3d6000fd5b505050506040513d6000823e601f3d908101601f19168201604052610e299190810190615713565b9350935093505061122d565b6000848152600260205260408120600801546001600160a01b031615610e75576000858152600260205260409020600801546001600160a01b0316610e91565b6000858152600260205260409020600701546001600160a01b03165b6000868152600260205260408120600b0154919250906001600160a01b031615610ed5576000868152600260205260409020600b01546001600160a01b0316610ef1565b6000868152600260205260409020600a01546001600160a01b03165b90506001600160a01b038216611016576001600160a01b0381161580610f2f57506000868152600260205260409020600c01546001600160601b0316155b15610f65576040805160008082526020820190815281830190925290610f586127106064615808565b945094509450505061122d565b6040805160018082528183019092529060208083019080368337019050509350610f926127106064615808565b84600081518110610fa557610fa5615833565b6001600160601b03929092166020928302919091018201526040805160018082528183019092529182810190803683370190505094508085600081518110610fef57610fef615833565b6001600160a01b03909216602092830291909101909101528484610f586127106064615808565b6001600160a01b038116158061104457506000868152600260205260409020600c01546001600160601b0316155b156110d35760408051600180825281830190925290602080830190803683370190505093506110766127106064615808565b8460008151811061108957611089615833565b6001600160601b03929092166020928302919091018201526040805160018082528183019092529182810190803683370190505094508185600081518110610fef57610fef615833565b6040805160028082526060820183529091602083019080368337019050509450818560008151811061110757611107615833565b60200260200101906001600160a01b031690816001600160a01b031681525050808560018151811061113b5761113b615833565b6001600160a01b03929092166020928302919091018201526040805160028082526060820183529092909190830190803683375050506000878152600260205260409020600c01549094506001600160601b031661119c6127106064615808565b6111a69190615849565b846000815181106111b9576111b9615833565b6001600160601b039283166020918202929092018101919091526000888152600290915260409020600c01548551911690859060019081106111fd576111fd615833565b6001600160601b039092166020928302919091019091015284846112246127106064615808565b94509450945050505b9193909250565b6000908152600080516020615e5d833981519152602052604090206001015490565b60008281526002602090815260408083207f4831d6f5c31879aa92e965cf9ad9dc01cf322e99ecdc2ed469778662147ed439845260030190915281205481906001600160a01b03166112ab6127106064615808565b6000868152600260205260409020600c01546001600160601b03918216916112d4911686615869565b6112de9190615896565b915091505b9250929050565b60048054604051632bd9a45960e01b81526001600160a01b038781169382019390935285831660248201526044810185905260648101849052911690632bd9a45990608401600060405180830381600087803b15801561134957600080fd5b505af115801561135d573d6000803e3d6000fd5b5050505050505050565b60005b8351811015611421576004546001600160a01b031663390ff1343386848151811061139757611397615833565b60200260200101516040518363ffffffff1660e01b81526004016113bc929190614aa1565b602060405180830381865afa1580156113d9573d6000803e3d6000fd5b505050506040513d601f19601f820116820180604052508101906113fd919061562c565b6114195760405162461bcd60e51b8152600401610ab490615649565b60010161136a565b5061142f8585858585612bbb565b5050505050565b61143f82611234565b61144881612df6565b6114528383612e00565b50505050565b6004546001600160a01b031663390ff13433846040518363ffffffff1660e01b8152600401611488929190614aa1565b602060405180830381865afa1580156114a5573d6000803e3d6000fd5b505050506040513d601f19601f820116820180604052508101906114c9919061562c565b6114e55760405162461bcd60e51b8152600401610ab490615649565b6000828152600260205260409020600c01546001600160601b03908116908216116115405760405162461bcd60e51b815260206004820152600b60248201526a6e6f20696e63726561736560a81b6044820152606401610ab4565b600091825260026020526040909120600c0180546001600160601b0319166001600160601b03909216919091179055565b6001600160a01b038116331461159a5760405163334bd91960e11b815260040160405180910390fd5b6115a48282612eac565b505050565b6115c0600080516020615e3d833981519152612df6565b60408051600480825260a082019092526000916020820160808036833701905050905085816000815181106115f7576115f7615833565b60200260200101906001600160a01b031690816001600160a01b031681525050848160028151811061162b5761162b615833565b60200260200101906001600160a01b031690816001600160a01b03168152505061165d8a8a8a8a8589898960006121eb565b50505050505050505050565b6004546001600160a01b031663390ff13433846040518363ffffffff1660e01b8152600401611699929190614aa1565b602060405180830381865afa1580156116b6573d6000803e3d6000fd5b505050506040513d601f19601f820116820180604052508101906116da919061562c565b6116f65760405162461bcd60e51b8152600401610ab490615649565b60009182526002602052604090912060080180546001600160a01b0319166001600160a01b03909216919091179055565b6060815183511461178c5760405162461bcd60e51b815260206004820152602960248201527f455243313135353a206163636f756e747320616e6420696473206c656e677468604482015268040dad2e6dac2e8c6d60bb1b6064820152608401610ab4565b600083516001600160401b038111156117a7576117a7614b00565b6040519080825280602002602001820160405280156117d0578160200160208202803683370190505b50905060005b84518110156118405761181b8582815181106117f4576117f4615833565b602002602001015185838151811061180e5761180e615833565b6020026020010151610a75565b82828151811061182d5761182d615833565b60209081029190910101526001016117d6565b509392505050565b611850612f28565b61185982612fcf565b6118638282612ff9565b5050565b60006118716130b6565b50600080516020615ddd8339815191525b90565b6004546001600160a01b031663390ff13433846040518363ffffffff1660e01b81526004016118b5929190614aa1565b602060405180830381865afa1580156118d2573d6000803e3d6000fd5b505050506040513d601f19601f820116820180604052508101906118f6919061562c565b6119125760405162461bcd60e51b8152600401610ab490615649565b60005b81518110156115a45760026000848152602001908152602001600020600d0182828151811061194657611946615833565b6020908102919091018101518254600181810185556000948552929093209092019190915501611915565b600081815260026020526040812060040154156119a357600082815260026020526040902060040154610b3190611971565b506000908152600260205260409020600701546001600160a01b031690565b919050565b6119de600080516020615e3d833981519152612df6565b60408051600480825260a08201909252600091602082016080803683370190505090508681600081518110611a1557611a15615833565b60200260200101906001600160a01b031690816001600160a01b0316815250508581600281518110611a4957611a49615833565b60200260200101906001600160a01b031690816001600160a01b031681525050611a7a8b8b8b8b858a8a8a8a6121eb565b5050505050505050505050565b6000818152600260209081526040808320600501805482518185028101850190935280835260609493830182828015611adf57602002820191906000526020600020905b815481526020019060010190808311611acb575b5093979650505050505050565b6004546001600160a01b031663c6b17fd833836040518363ffffffff1660e01b8152600401611b1c929190614aa1565b602060405180830381865afa158015611b39573d6000803e3d6000fd5b505050506040513d601f19601f82011682018060405250810190611b5d919061562c565b611b795760405162461bcd60e51b8152600401610ab490615649565b6000908152600260205260409020600b01805460ff60a01b1916600160a01b179055565b6004546001600160a01b031663390ff13433846040518363ffffffff1660e01b8152600401611bcd929190614aa1565b602060405180830381865afa158015611bea573d6000803e3d6000fd5b505050506040513d601f19601f82011682018060405250810190611c0e919061562c565b611c2a5760405162461bcd60e51b8152600401610ab490615649565b60009182526002602090815260408320600e018054600181018255908452922090910155565b611c5d6064612710615808565b6001600160601b031681565b6000918252600080516020615e5d833981519152602090815260408084206001600160a01b0393909316845291905290205460ff1690565b6004805460405163a22cb46560e01b81526001600160a01b0385811693820193909352831515602482015291169063a22cb46590604401600060405180830381600087803b158015611cf257600080fd5b505af1158015611d06573d6000803e3d6000fd5b505050505050565b60605b6000828152600260205260409020600d0154158015611d40575060008281526002602052604090206004015415155b15611d5e576000918252600260205260409091206004015490611d11565b600082815260026020908152604091829020600d0180548351818402810184019094528084529091830182828015611db557602002820191906000526020600020905b815481526020019060010190808311611da1575b50505050509050919050565b611c5d606480615808565b6118633383836130ff565b600081815260026020908152604091829020600e01805483518184028101840190945280845260609392830182828015611db55760200282019190600052602060002090815481526020019060010190808311611da15750505050509050919050565b7f189ab7a9244df0848122154315af71fe140f3db0fe014031783b0946b8c9d2e3611e6481612df6565b50600580546001600160a01b03199081166001600160a01b03978816179091556007805482169487169490941790935560068054841692861692909217909155600080548316938516939093179092556004805490911691909216179055565b6004546001600160a01b031663390ff13433856040518363ffffffff1660e01b8152600401611ef4929190614aa1565b602060405180830381865afa158015611f11573d6000803e3d6000fd5b505050506040513d601f19601f82011682018060405250810190611f35919061562c565b611f515760405162461bcd60e51b8152600401610ab490615649565b60008381526002602090815260408220601301805460018101825590835291200161145282848361592c565b6004546001600160a01b031663c6b17fd833846040518363ffffffff1660e01b8152600401611fad929190614aa1565b602060405180830381865afa158015611fca573d6000803e3d6000fd5b505050506040513d601f19601f82011682018060405250810190611fee919061562c565b61200a5760405162461bcd60e51b8152600401610ab490615649565b6000828152600260205260409020600c01546001600160601b03908116908216106115405760405162461bcd60e51b815260206004820152600c60248201526b3737903932b23ab1ba34b7b760a11b6044820152606401610ab4565b606060026000838152602001908152602001600020601301805480602002602001604051908101604052809291908181526020016000905b8282101561214a5783829060005260206000200180546120bd906158aa565b80601f01602080910402602001604051908101604052809291908181526020018280546120e9906158aa565b80156121365780601f1061210b57610100808354040283529160200191612136565b820191906000526020600020905b81548152906001019060200180831161211957829003601f168201915b50505050508152602001906001019061209e565b505050509050919050565b6000818152600260205260408120600401548190156121925760008381526002602052604090206004015461218990612155565b91509150915091565b509091309150565b60006003600084846040516121b09291906159eb565b6040518091039020815260200190815260200160002054905092915050565b6121d882611234565b6121e181612df6565b6114528383612eac565b612202600080516020615e3d833981519152612df6565b6000612281338760008151811061221b5761221b615833565b60200260200101518860018151811061223657612236615833565b6020026020010151612246613430565b8989808060200260200160405190810160405280939291908181526020018383602002808284376000920191909152508a925061347b915050565b905061165d818b8b8b8b888c61229a6127106002615808565b613579565b6004805460405163e985e9c560e01b81526001600160a01b038581169382019390935283831660248201526000929091169063e985e9c590604401602060405180830381865afa1580156122f7573d6000803e3d6000fd5b505050506040513d601f19601f8201168201806040525081019061231b919061562c565b9392505050565b6000818152600260205260408120600b015481906001600160a01b031615612364576000838152600260205260409020600b01546001600160a01b0316612380565b6000838152600260205260409020600a01546001600160a01b03165b600093845260026020526040909320600c015492936001600160601b0390931692915050565b60048054604051630e43fc4d60e21b81526001600160a01b039091169163390ff134916123d7918991889101614aa1565b602060405180830381865afa1580156123f4573d6000803e3d6000fd5b505050506040513d601f19601f82011682018060405250810190612418919061562c565b6124345760405162461bcd60e51b8152600401610ab490615649565b61142f8585858585613731565b7ff0c57e16840df040f15088dc2f81fe391c3923bec73e23a9662efc9c229c6a008054600160401b810460ff1615906001600160401b03166000811580156124865750825b90506000826001600160401b031660011480156124a25750303b155b9050811580156124b0575080155b156124ce5760405163f92ee8a960e01b815260040160405180910390fd5b845467ffffffffffffffff1916600117855583156124f857845460ff60401b1916600160401b1785555b612500613941565b612508613951565b612510613951565b61251b60008a612e00565b506125467f65d7a28e3265b37a6474929f336521b332c1681b933f6cb9f3376673440d862a89612e00565b5061255f600080516020615e3d83398151915288612e00565b5061258a7f189ab7a9244df0848122154315af71fe140f3db0fe014031783b0946b8c9d2e387612e00565b5083156125d157845460ff60401b19168555604051600181527fc7f505b2f371ae2175ee4913f4499e1f2633a7b5936321eed1cdaeb6115181d29060200160405180910390a15b505050505050505050565b60006001600160e01b03198216637965db0b60e01b1480610b3157506301ffc9a760e01b6001600160e01b0319831614610b31565b60008181526002602052604090206004015415801561269d575060048054604051630e43fc4d60e21b81526001600160a01b039091169163390ff1349161265c918691869101614aa1565b602060405180830381865afa158015612679573d6000803e3d6000fd5b505050506040513d601f19601f8201168201806040525081019061269d919061562c565b6126a657600080fd5b60005b6000828152600260205260408082206004015482529020600501548110156128635760405162149cdb60eb1b815260048101839052309063a4e6d80090602401600060405180830381865afa158015612706573d6000803e3d6000fd5b505050506040513d6000823e601f3d908101601f1916820160405261272e91908101906159fb565b60026000848152602001908152602001600020600d01908051906020019061275792919061485c565b50600082815260026020526040808220600401548252902060050180548391908390811061278757612787615833565b90600052602060002001540361285b57600082815260026020526040808220600401548252902060050180546127bf90600190615a96565b815481106127cf576127cf615833565b60009182526020808320909101548483526002909152604080832060040154835290912060050180548390811061280857612808615833565b600091825260208083209091019290925583815260029091526040808220600401548252902060050180548061284057612840615aa9565b60019003818190600052602060002001600090559055612863565b6001016126a9565b5060008181526002602052604081206004015461287f90611971565b9050806001600160a01b0316836001600160a01b03161461290a576004805460405163011cf79360e61b81526001600160a01b0386811693820193909352602481018590526001604482015291169063473de4c090606401600060405180830381600087803b1580156128f157600080fd5b505af1158015612905573d6000803e3d6000fd5b505050505b600082815260026020526040908190206007810180546001600160a01b0319166001600160a01b038516179055600490810154915162149cdb60eb1b815290810191909152309063a4e6d80090602401600060405180830381865afa158015612977573d6000803e3d6000fd5b505050506040513d6000823e601f3d908101601f1916820160405261299f91908101906159fb565b60026000848152602001908152602001600020600d0190805190602001906129c892919061485c565b5060008281526002602052604081206004018190556129e5613959565b905060005b815181101561142f57600084815260026020526040812083516003909101908290859085908110612a1d57612a1d615833565b6020908102919091018101518252810191909152604001600020546001600160a01b031603612a5457612a4f84613a33565b61142f565b6001016129ea565b60608151600003612a7b57505060408051602081019091526000815290565b6000604051806060016040528060408152602001615dfd6040913990506000600384516002612aaa9190615abf565b612ab49190615896565b612abf906004615869565b6001600160401b03811115612ad657612ad6614b00565b6040519080825280601f01601f191660200182016040528015612b00576020820181803683370190505b50905060018201602082018586518701602081018051600082525b82841015612b76576003840193508351603f8160121c168701518653600186019550603f81600c1c168701518653600186019550603f8160061c168701518653600186019550603f8116870151865350600185019450612b1b565b9052505085516003900660018114612b955760028114612ba857612bb0565b603d6001830353603d6002830353612bb0565b603d60018303535b509195945050505050565b8151835114612bff5760405162461bcd60e51b815260206004820152601060248201526f040d8cadccee8d040dad2e6dac2e8c6d60831b6044820152606401610ab4565b6001600160a01b038416612c445760405162461bcd60e51b815260206004820152600c60248201526b7a65726f206164647265737360a01b6044820152606401610ab4565b3360005b8451811015612d90576000858281518110612c6557612c65615833565b602002602001015190506000612c7a82611971565b9050886001600160a01b0316816001600160a01b0316148015612cb657506002868481518110612cac57612cac615833565b6020026020010151105b612cf25760405162461bcd60e51b815260206004820152600d60248201526c3130b630b731b29032b93937b960991b6044820152606401610ab4565b60008281526002602052604090206004015415612d3a5760405162461bcd60e51b81526020600482015260066024820152651b995cdd195960d21b6044820152606401610ab4565b858381518110612d4c57612d4c615833565b6020026020010151600103612d8657600082815260026020526040902060070180546001600160a01b0319166001600160a01b038a161790555b5050600101612c48565b50846001600160a01b0316866001600160a01b0316826001600160a01b03167f4a39dc06d4c0dbc64b70af90fd698a233a518aa5d07e595d983b8c0526c8f7fb8787604051612de0929190615ad2565b60405180910390a4611d06818787878787613b57565b610b9c8133613cb8565b6000600080516020615e5d833981519152612e1b8484611c69565b612e9b576000848152602082815260408083206001600160a01b03871684529091529020805460ff19166001179055612e513390565b6001600160a01b0316836001600160a01b0316857f2f8788117e7eff1d82e926ec794901d17c78024a50270940304540a733656f0d60405160405180910390a46001915050610b31565b6000915050610b31565b5092915050565b6000600080516020615e5d833981519152612ec78484611c69565b15612e9b576000848152602082815260408083206001600160a01b0387168085529252808320805460ff1916905551339287917ff6391f5c32d9c69d2a47ea670b442974b53935d1edc7fd64eb21e047a839171b9190a46001915050610b31565b306001600160a01b037f0000000000000000000000000000000000000000000000000000000000000000161480612faf57507f00000000000000000000000000000000000000000000000000000000000000006001600160a01b0316612fa3600080516020615ddd833981519152546001600160a01b031690565b6001600160a01b031614155b15612fcd5760405163703e46dd60e11b815260040160405180910390fd5b565b7f189ab7a9244df0848122154315af71fe140f3db0fe014031783b0946b8c9d2e361186381612df6565b816001600160a01b03166352d1902d6040518163ffffffff1660e01b8152600401602060405180830381865afa925050508015613053575060408051601f3d908101601f1916820190925261305091810190615af7565b60015b61307b57604051634c9c8ce360e01b81526001600160a01b0383166004820152602401610ab4565b600080516020615ddd83398151915281146130ac57604051632a87526960e21b815260048101829052602401610ab4565b6115a48383613ce3565b306001600160a01b037f00000000000000000000000000000000000000000000000000000000000000001614612fcd5760405163703e46dd60e11b815260040160405180910390fd5b60048054604051630e43fc4d60e21b81526001600160a01b039091169163390ff13491613130918791879101614aa1565b602060405180830381865afa15801561314d573d6000803e3d6000fd5b505050506040513d601f19601f82011682018060405250810190613171919061562c565b61317a57600080fd5b60048054604051630e43fc4d60e21b81526001600160a01b039091169163390ff134916131ab918791869101614aa1565b602060405180830381865afa1580156131c8573d6000803e3d6000fd5b505050506040513d601f19601f820116820180604052508101906131ec919061562c565b6131f557600080fd5b604051634f558e7960e01b8152600481018290523090634f558e7990602401602060405180830381865afa158015613231573d6000803e3d6000fd5b505050506040513d601f19601f82011682018060405250810190613255919061562c565b80156132bc5750604051634f558e7960e01b8152600481018390523090634f558e7990602401602060405180830381865afa158015613298573d6000803e3d6000fd5b505050506040513d601f19601f820116820180604052508101906132bc919061562c565b6132c557600080fd5b81158015906132d357508015155b6132dc57600080fd5b6132e68282613d39565b60005b60008381526002602052604080822060040154825290206005015481101561338757600083815260026020526040808220600401548252902060050180548491908390811061333a5761333a615833565b90600052602060002001540361337f5760405162461bcd60e51b815260206004820152600a602482015269191bdd589b195918591960b21b6044820152606401610ab4565b6001016132e9565b506004805460405163f618827960e01b81529182018490526001600160a01b03169063f618827990602401600060405180830381600087803b1580156133cc57600080fd5b505af11580156133e0573d6000803e3d6000fd5b50505060008381526002602090815260408083206004810186905594835282206005018054600181018255908352908220018490559290925260070180546001600160a01b031916301790555050565b6040805160018082528183019092526060916000919060208083019080368337019050509050600a8160008151811061346b5761346b615833565b6020908102919091010152919050565b600180546000918261348c83615b10565b91905055506134c3876000886134a3600154613da9565b6134ad6001613da9565b5050604080516020810190915260009052505050565b6134d4600154888888888888613df4565b856001600160a01b031660006001600160a01b0316886001600160a01b03167fc3d58168c5ae7397731d063d5bbf3d657854427343f4c083240f7aacaa2d0f626001546001604051613530929190918252602082015260400190565b60405180910390a461354a876000886134a3600154613da9565b61356b87600088600154600160405180602001604052806000815250613f3b565b506001549695505050505050565b6000888152600260205260409020600e0154158015906135ab575061359f606480615808565b6001600160601b031683105b806135e457506000888152600260205260409020600e01541580156135e457506135d86064612710615808565b6001600160601b031683105b80613601575060008881526002602052604090206012015460ff16155b61360a57600080fd5b600088815260026020819052604090912060118101859055600c0180546001600160601b0319166001600160601b0384161790558251839190811061365157613651615833565b6020026020010151600260008a8152602001908152602001600020600a0160006101000a8154816001600160a01b0302191690836001600160a01b03160217905550816003815181106136a6576136a6615833565b60209081029190910181015160008a81526002835260408120600b810180546001600160a01b0319166001600160a01b0390941693909317909255601390910180546001810182559082529190200161370085878361592c565b5061370c888888613ff3565b505050600094855250506002602052505060409020601201805460ff19166001179055565b6001600160a01b0384166137725760405162461bcd60e51b81526020600482015260086024820152671e995c9bdb5a5b9d60c21b6044820152606401610ab4565b6040516331a9108f60e11b8152600481018490526000903090636352211e90602401602060405180830381865afa1580156137b1573d6000803e3d6000fd5b505050506040513d601f19601f820116820180604052508101906137d59190615b29565b9050856001600160a01b0316816001600160a01b03161480156137f85750600283105b6138345760405162461bcd60e51b815260206004820152600d60248201526c3130b630b731b29032b93937b960991b6044820152606401610ab4565b600084815260026020526040902060040154156138855760405162461bcd60e51b815260206004820152600f60248201526e1bdb9b1e481b9bdb881b995cdd1959608a1b6044820152606401610ab4565b33600061389186613da9565b9050600061389e86613da9565b9050856001036138d357600087815260026020526040902060070180546001600160a01b0319166001600160a01b038a161790555b876001600160a01b0316896001600160a01b0316846001600160a01b03167fc3d58168c5ae7397731d063d5bbf3d657854427343f4c083240f7aacaa2d0f628a8a60405161392b929190918252602082015260400190565b60405180910390a46125d1838a8a8a8a8a613f3b565b613949614044565b612fcd61408d565b612fcd614044565b60408051600380825260808201909252606091600091906020820184803683370190505090507f4831d6f5c31879aa92e965cf9ad9dc01cf322e99ecdc2ed469778662147ed439816000815181106139b3576139b3615833565b6020026020010181815250507f2676258abcad637562de6f2c149e8965b40a93203c2feb3f1d790e9ee06c90f5816001815181106139f3576139f3615833565b6020026020010181815250507f30932118c5d6907020fc6c27dbb7fc234e215273c3ab36629fe9a0b481a48fa88160028151811061346b5761346b615833565b6000613a3d613959565b905060005b81518110156115a45760055460065483516001600160a01b039283169263b83903949216908690613a8c90879087908110613a7f57613a7f615833565b60200260200101516140c0565b6040518463ffffffff1660e01b8152600401613aaa93929190615b46565b6020604051808303816000875af1158015613ac9573d6000803e3d6000fd5b505050506040513d601f19601f82011682018060405250810190613aed9190615b29565b600260008581526020019081526020016000206003016000848481518110613b1757613b17615833565b602090810291909101810151825281019190915260400160002080546001600160a01b0319166001600160a01b0392909216919091179055600101613a42565b833b63ffffffff1615611d065760405163bc197c8160e01b81526001600160a01b0385169063bc197c8190613b989089908990889088908890600401615bd3565b6020604051808303816000875af1925050508015613bd3575060408051601f3d908101601f19168201909252613bd091810190615c31565b60015b613c7f57613bdf615c4e565b806308c379a003613c185750613bf3615c69565b80613bfe5750613c1a565b8060405162461bcd60e51b8152600401610ab49190614999565b505b60405162461bcd60e51b815260206004820152603460248201527f455243313135353a207472616e7366657220746f206e6f6e20455243313135356044820152732932b1b2b4bb32b91034b6b83632b6b2b73a32b960611b6064820152608401610ab4565b6001600160e01b0319811663bc197c8160e01b14613caf5760405162461bcd60e51b8152600401610ab490615cf2565b50505050505050565b613cc28282611c69565b61186357808260405163e2517d3f60e01b8152600401610ab4929190614aa1565b613cec82614201565b6040516001600160a01b038316907fbc7cd75a20ee27fd9adebab32041f755214dbc6bffa90cc0225b39da2e5c2d3b90600090a2805115613d31576115a48282614266565b6118636142dc565b60005b6064811015613d8f5760008281526002602052604081206004015490819003613d655750505050565b838103613d855760405163f911968960e01b815260040160405180910390fd5b9150600101613d3c565b50604051637590622160e11b815260040160405180910390fd5b60408051600180825281830190925260609160009190602080830190803683370190505090508281600081518110613de357613de3615833565b602090810291909101015292915050565b6001600160a01b038516613e0757600080fd5b60008781526002602090815260409091206007810180546001600160a01b03808a166001600160a01b0319928316179092556009830180548b8416908316179055600883018054928916929091169190911790558451613e6f92600d9092019186019061485c565b5060008781526002602090815260409091208351613e9592600e9092019185019061485c565b50815115613f1c576040516001600160601b0319606088901b166020820152600090613edc9082906034015b604051602081830303815290604052805190602001206142fb565b91505060005b8351811015613f1957613f11848281518110613f0057613f00615833565b60200260200101516005848b6143c3565b600101613ee2565b50505b8015613f3257613f2d8688836130ff565b613caf565b613caf87613a33565b833b63ffffffff1615611d065760405163f23a6e6160e01b81526001600160a01b0385169063f23a6e6190613f7c9089908990889088908890600401615d3a565b6020604051808303816000875af1925050508015613fb7575060408051601f3d908101601f19168201909252613fb491810190615c31565b60015b613fc357613bdf615c4e565b6001600160e01b0319811663f23a6e6160e01b14613caf5760405162461bcd60e51b8152600401610ab490615cf2565b600083815260026020526040902060010161400f82848361592c565b50826003600084846040516140259291906159eb565b6040518091039020815260200190815260200160002081905550505050565b7ff0c57e16840df040f15088dc2f81fe391c3923bec73e23a9662efc9c229c6a0054600160401b900460ff16612fcd57604051631afcd79f60e31b815260040160405180910390fd5b614095614044565b7fcd5ed15c6e187e77e9aee88184c21f4f2182ab5827cb3b7e07fbedcd63f03300805460ff19169055565b604080516002808252606082810190935260009190816020015b6040805180820190915260008152606060208201528152602001906001900390816140da57905050905060405180604001604052807fa66b7a3e6b19d24ccb6f717fc232a1bb0278a7f83f8e2211835fc4ed0fe69f1981526020017fd3a99e33573760b1a7e355ed2b0b686cd8064283ceca215a79f453836284da7660405160200161416891815260200190565b6040516020818303038152906040528152508160008151811061418d5761418d615833565b602002602001018190525060405180604001604052807f6e1ab68ad4c64bef5fa708d6f6bc297cc3f9b222356dbef15d41ed0800601f728152602001846040516020016141dc91815260200190565b60405160208183030381529060405281525081600181518110613de357613de3615833565b806001600160a01b03163b60000361423757604051634c9c8ce360e01b81526001600160a01b0382166004820152602401610ab4565b600080516020615ddd83398151915280546001600160a01b0319166001600160a01b0392909216919091179055565b6060600080846001600160a01b0316846040516142839190615d74565b600060405180830381855af49150503d80600081146142be576040519150601f19603f3d011682016040523d82523d6000602084013e6142c3565b606091505b50915091506142d38583836147de565b95945050505050565b3415612fcd5760405163b398979f60e01b815260040160405180910390fd5b60008060005b600a8110156143b9576000610100858360405160200161432b929190918252602082015260400190565b6040516020818303038152906040528051906020012060001c61434e9190615d90565b905061010081106143925760405162461bcd60e51b815260206004820152600e60248201526d27bb32b9333637bb9032b93937b960911b6044820152606401610ab4565b6001811b86811787146143af5760009450861792506112e3915050565b5050600101614301565b5060019492505050565b821561145257826143d381615da4565b6000868152600260205260408120600e0180549296509250036143f65750611452565b600085815260026020908152604080832060090154905161443c928792613ec1926001600160a01b03909116910160609190911b6001600160601b031916815260140190565b509050806144fd576000868152600260205260408120601001805461ffff169161446583615dbb565b825461ffff9182166101009390930a92830291909202199091161790555060075460008781526002602052604090819020600901549051631b68c19360e11b81526001600160a01b03918216600482015285821660248201529116906336d1832690604401600060405180830381600087803b1580156144e457600080fd5b505af11580156144f8573d6000803e3d6000fd5b505050505b60005b8254811015613caf57600080614579876002600088878154811061452657614526615833565b9060005260206000200154815260200190815260200160002060090160009054906101000a90046001600160a01b0316604051602001613ec1919060609190911b6001600160601b031916815260140190565b915091508161476f576002600086858154811061459857614598615833565b600091825260208083209091015483528201929092526040018120601001805461ffff16916145c683615dbb565b91906101000a81548161ffff021916908361ffff16021790555050600760009054906101000a90046001600160a01b03166001600160a01b03166336d183266002600088878154811061461b5761461b615833565b600091825260208083209190910154835282810193909352604091820181206009908101548f83526002909452908290200154905160e084901b6001600160e01b03191681526001600160a01b03928316600482015291166024820152604401600060405180830381600087803b15801561469557600080fd5b505af11580156146a9573d6000803e3d6000fd5b505060075487546001600160a01b0390911692506336d1832691506002906000908990889081106146dc576146dc615833565b60009182526020808320919091015483528281019390935260409182018120600a908101548f83526002909452908290200154905160e084901b6001600160e01b03191681526001600160a01b03928316600482015291166024820152604401600060405180830381600087803b15801561475657600080fd5b505af115801561476a573d6000803e3d6000fd5b505050505b6147d485848154811061478457614784615833565b90600052602060002001548983600260008a89815481106147a7576147a7615833565b600091825260208083209091015483528201929092526040019020600901546001600160a01b03166143c3565b5050600101614500565b6060826147f3576147ee82614833565b61231b565b815115801561480a57506001600160a01b0384163b155b15612ea557604051639996b31560e01b81526001600160a01b0385166004820152602401610ab4565b8051156148435780518082602001fd5b604051630a12f52160e11b815260040160405180910390fd5b828054828255906000526020600020908101928215614897579160200282015b8281111561489757825182559160200191906001019061487c565b506148a39291506148a7565b5090565b5b808211156148a357600081556001016148a8565b6001600160a01b0381168114610b9c57600080fd5b600080604083850312156148e457600080fd5b82356148ef816148bc565b946020939093013593505050565b6001600160e01b031981168114610b9c57600080fd5b60006020828403121561492557600080fd5b813561231b816148fd565b60006020828403121561494257600080fd5b5035919050565b60005b8381101561496457818101518382015260200161494c565b50506000910152565b60008151808452614985816020860160208601614949565b601f01601f19169290920160200192915050565b60208152600061231b602083018461496d565b600080604083850312156149bf57600080fd5b8235915060208301356149d1816148bc565b809150509250929050565b606080825284519082018190526000906020906080840190828801845b82811015614a1e5781516001600160a01b0316845292840192908401906001016149f9565b5050508381038285015285518082528683019183019060005b81811015614a5c5783516001600160601b031683529284019291840191600101614a37565b50506001600160601b03861660408601529250614a77915050565b949350505050565b60008060408385031215614a9257600080fd5b50508035926020909101359150565b6001600160a01b03929092168252602082015260400190565b60008060008060808587031215614ad057600080fd5b8435614adb816148bc565b93506020850135614aeb816148bc565b93969395505050506040820135916060013590565b634e487b7160e01b600052604160045260246000fd5b601f8201601f191681016001600160401b0381118282101715614b3b57614b3b614b00565b6040525050565b60006001600160401b03821115614b5b57614b5b614b00565b5060051b60200190565b600082601f830112614b7657600080fd5b81356020614b8382614b42565b604051614b908282614b16565b80915083815260208101915060208460051b870101935086841115614bb457600080fd5b602086015b84811015614bd05780358352918301918301614bb9565b509695505050505050565b600082601f830112614bec57600080fd5b81356001600160401b03811115614c0557614c05614b00565b604051614c1c601f8301601f191660200182614b16565b818152846020838601011115614c3157600080fd5b816020850160208301376000918101602001919091529392505050565b600080600080600060a08688031215614c6657600080fd5b8535614c71816148bc565b94506020860135614c81816148bc565b935060408601356001600160401b0380821115614c9d57600080fd5b614ca989838a01614b65565b94506060880135915080821115614cbf57600080fd5b614ccb89838a01614b65565b93506080880135915080821115614ce157600080fd5b50614cee88828901614bdb565b9150509295509295909350565b6001600160601b0381168114610b9c57600080fd5b60008060408385031215614d2357600080fd5b8235915060208301356149d181614cfb565b60008083601f840112614d4757600080fd5b5081356001600160401b03811115614d5e57600080fd5b6020830191508360208285010111156112e357600080fd5b60008083601f840112614d8857600080fd5b5081356001600160401b03811115614d9f57600080fd5b6020830191508360208260051b85010111156112e357600080fd5b600080600080600080600080600060c08a8c031215614dd857600080fd5b89356001600160401b0380821115614def57600080fd5b614dfb8d838e01614d35565b909b50995060208c0135915080821115614e1457600080fd5b614e208d838e01614d35565b909950975060408c01359150614e35826148bc565b90955060608b013590614e47826148bc565b90945060808b01359080821115614e5d57600080fd5b50614e6a8c828d01614d76565b9a9d999c50979a9699959894979660a00135949350505050565b600082601f830112614e9557600080fd5b81356020614ea282614b42565b604051614eaf8282614b16565b80915083815260208101915060208460051b870101935086841115614ed357600080fd5b602086015b84811015614bd0578035614eeb816148bc565b8352918301918301614ed8565b60008060408385031215614f0b57600080fd5b82356001600160401b0380821115614f2257600080fd5b614f2e86838701614e84565b93506020850135915080821115614f4457600080fd5b50614f5185828601614b65565b9150509250929050565b60008151808452602080850194506020840160005b83811015614f8c57815187529582019590820190600101614f70565b509495945050505050565b60208152600061231b6020830184614f5b565b60008060408385031215614fbd57600080fd5b8235614fc8816148bc565b915060208301356001600160401b03811115614fe357600080fd5b614f5185828601614bdb565b6000806040838503121561500257600080fd5b8235915060208301356001600160401b0381111561501f57600080fd5b614f5185828601614b65565b60008060008060008060008060008060e08b8d03121561504a57600080fd5b8a356001600160401b038082111561506157600080fd5b61506d8e838f01614d35565b909c509a5060208d013591508082111561508657600080fd5b6150928e838f01614d35565b909a50985060408d013591506150a7826148bc565b90965060608c0135906150b9826148bc565b90955060808c013590808211156150cf57600080fd5b506150dc8d828e01614d76565b9b9e9a9d50989b979a969995989760a08101359660c09091013595509350505050565b8015158114610b9c57600080fd5b6000806040838503121561512057600080fd5b823561512b816148bc565b915060208301356149d1816150ff565b600080600080600060a0868803121561515357600080fd5b853561515e816148bc565b9450602086013561516e816148bc565b9350604086013561517e816148bc565b9250606086013561518e816148bc565b9150608086013561519e816148bc565b809150509295509295909350565b6000806000604084860312156151c157600080fd5b8335925060208401356001600160401b038111156151de57600080fd5b6151ea86828701614d35565b9497909650939450505050565b600060208083016020845280855180835260408601915060408160051b87010192506020870160005b8281101561524e57603f1988860301845261523c85835161496d565b94509285019290850190600101615220565b5092979650505050505050565b6000806020838503121561526e57600080fd5b82356001600160401b0381111561528457600080fd5b61529085828601614d35565b90969095509350505050565b600080600080600080600080600060c08a8c0312156152ba57600080fd5b89356001600160401b03808211156152d157600080fd5b6152dd8d838e01614d35565b909b50995060208c01359150808211156152f657600080fd5b6153028d838e01614d35565b909950975060408c013591508082111561531b57600080fd5b6153278d838e01614e84565b965060608c013591508082111561533d57600080fd5b5061534a8c828d01614d76565b9a9d999c50979a96999598959660808101359660a09091013595509350505050565b6000806040838503121561537f57600080fd5b823561538a816148bc565b915060208301356149d1816148bc565b600080600080600060a086880312156153b257600080fd5b85356153bd816148bc565b945060208601356153cd816148bc565b9350604086013592506060860135915060808601356001600160401b038111156153f657600080fd5b614cee88828901614bdb565b6000806000806080858703121561541857600080fd5b8435615423816148bc565b93506020850135615433816148bc565b92506040850135615443816148bc565b91506060850135615453816148bc565b939692955090935050565b600081548260005260208060002060005b83811015614f8c5781548752958201956001918201910161546f565b607b60f81b81526a1136b4b73a32b9111d101160a91b6001820152606087811b6001600160601b0319908116600c840152601160f91b602084018190526c1131b932b0ba37b939911d101160991b60218501529188901b16602e8301526042820152600061558d61556461552861555e61553582615522604389016f113634b1b2b739b2a932b339911d101160811b815260100190565b8c61545e565b601160f91b815260010190565b7f22706172656e74436f6e747269627574696f6e73223a20220000000000000000815260180190565b8861545e565b7f22636f6e6669726d6174696f6e466163746f72223a2022000000000000000000815260170190565b6155a3818660f01b6001600160f01b0319169052565b601160f91b60028201526f1139ba37b93ca837b4b73a39911d101160811b600382015260138101938452505061227d60f01b60208301525060220195945050505050565b7f646174613a6170706c69636174696f6e2f6a736f6e3b6261736536342c00000081526000825161561f81601d850160208701614949565b91909101601d0192915050565b60006020828403121561563e57600080fd5b815161231b816150ff565b6020808252600c908201526b1b9bdd08185c1c1c9bdd995960a21b604082015260600190565b6000806040838503121561568257600080fd5b8251915060208301516149d1816148bc565b80516119c281614cfb565b600082601f8301126156b057600080fd5b815160206156bd82614b42565b6040516156ca8282614b16565b80915083815260208101915060208460051b8701019350868411156156ee57600080fd5b602086015b84811015614bd057805161570681614cfb565b83529183019183016156f3565b60008060006060848603121561572857600080fd5b83516001600160401b038082111561573f57600080fd5b818601915086601f83011261575357600080fd5b8151602061576082614b42565b60405161576d8282614b16565b83815260059390931b850182019282810191508a84111561578d57600080fd5b948201945b838610156157b45785516157a5816148bc565b82529482019490820190615792565b918901519197509093505050808211156157cd57600080fd5b506157da8682870161569f565b9250506157e960408501615694565b90509250925092565b634e487b7160e01b600052601160045260246000fd5b6001600160601b0381811683821602808216919082811461582b5761582b6157f2565b505092915050565b634e487b7160e01b600052603260045260246000fd5b6001600160601b03828116828216039080821115612ea557612ea56157f2565b8082028115828204841417610b3157610b316157f2565b634e487b7160e01b600052601260045260246000fd5b6000826158a5576158a5615880565b500490565b600181811c908216806158be57607f821691505b6020821081036158de57634e487b7160e01b600052602260045260246000fd5b50919050565b601f8211156115a4576000816000526020600020601f850160051c8101602086101561590d5750805b601f850160051c820191505b81811015611d0657828155600101615919565b6001600160401b0383111561594357615943614b00565b6159578361595183546158aa565b836158e4565b6000601f84116001811461598b57600085156159735750838201355b600019600387901b1c1916600186901b17835561142f565b600083815260209020601f19861690835b828110156159bc578685013582556020948501946001909201910161599c565b50868210156159d95760001960f88860031b161c19848701351681555b505060018560011b0183555050505050565b8183823760009101908152919050565b60006020808385031215615a0e57600080fd5b82516001600160401b03811115615a2457600080fd5b8301601f81018513615a3557600080fd5b8051615a4081614b42565b604051615a4d8282614b16565b82815260059290921b8301840191848101915087831115615a6d57600080fd5b928401925b82841015615a8b57835182529284019290840190615a72565b979650505050505050565b81810381811115610b3157610b316157f2565b634e487b7160e01b600052603160045260246000fd5b80820180821115610b3157610b316157f2565b604081526000615ae56040830185614f5b565b82810360208401526142d38185614f5b565b600060208284031215615b0957600080fd5b5051919050565b600060018201615b2257615b226157f2565b5060010190565b600060208284031215615b3b57600080fd5b815161231b816148bc565b60006060820160018060a01b03861683526020858185015260406060604086015282865180855260808701915060808160051b880101945083880160005b82811015615bc357888703607f19018452815180518852860151868801869052615bb08689018261496d565b9750509285019290850190600101615b84565b50949a9950505050505050505050565b6001600160a01b0386811682528516602082015260a060408201819052600090615bff90830186614f5b565b8281036060840152615c118186614f5b565b90508281036080840152615c25818561496d565b98975050505050505050565b600060208284031215615c4357600080fd5b815161231b816148fd565b600060033d11156118825760046000803e5060005160e01c90565b600060443d1015615c775790565b6040516003193d81016004833e81513d6001600160401b038160248401118184111715615ca657505050505090565b8285019150815181811115615cbe5750505050505090565b843d8701016020828501011115615cd85750505050505090565b615ce760208286010187614b16565b509095945050505050565b60208082526028908201527f455243313135353a204552433131353552656365697665722072656a656374656040820152676420746f6b656e7360c01b606082015260800190565b6001600160a01b03868116825285166020820152604081018490526060810183905260a060808201819052600090615a8b9083018461496d565b60008251615d86818460208701614949565b9190910192915050565b600082615d9f57615d9f615880565b500690565b600081615db357615db36157f2565b506000190190565b600061ffff808316818103615dd257615dd26157f2565b600101939250505056fe360894a13ba1a3210667c828492db98dca3e2076cc3735a920a3ca505d382bbc4142434445464748494a4b4c4d4e4f505152535455565758595a6162636465666768696a6b6c6d6e6f707172737475767778797a303132333435363738392b2f9f2df0fed2c77648de5860a4cc508cd0818c85b8b8a1ab4ceeef8d981c8956a602dd7bc7dec4dceedda775e58dd541e08a116c6c53815c0bd028192f7b626800a26469706673582212207578c3508ad859bd210bd96baed42697545adf6bf6f23ba73c8b56c259288fac64736f6c63430008160033",
  "linkReferences": {},
  "deployedLinkReferences": {}
}